:020000040800F2
:100000000000042019270008BD240008C5240008AA
:10001000CD240008D5240008DD2400086927000845
:10002000000000000000000000000000E5240008BF
:10003000F324000800000000012500080F25000837
:100040006927000869270008692700086927000850
:100050006927000869270008692700086927000840
:100060006927000869270008692700086927000830
:100070006927000869270008692700086927000820
:100080006927000869270008692700086927000810
:100090006927000869270008692700086927000800
:1000A00069270008692700086927000869270008F0
:1000B00069270008692700086927000869270008E0
:1000C00069270008692700086927000869270008D0
:1000D00069270008692700086927000869270008C0
:1000E00069270008692700086927000869270008B0
:1000F00069270008692700086927000869270008A0
:10010000692700086927000869270008692700088F
:10011000692700086927000869270008692700087F
:10012000692700086927000869270008692700086F
:1001300069270008692700080000000069270008F7
:10014000692700086927000869270008692700084F
:10015000692700086927000869270008692700083F
:1001600069270008692700086927000800000000C7
:1001700069270008692700086927000800000000B7
:10018000692700086927000869270008692700080F
:1001900069270008692700086927000869270008FF
:1001A0006927000869270008692700080000000087
:1001B00069270008692700086927000869270008DF
:1001C00069270008692700086927000869270008CF
:1001D00069270008692700086927000869270008BF
:1001E0000000000000000000000000006927000877
:1001F0006927000800000000692700086927000837
:10020000692700086927000869270008692700088E
:100210006927000869270008000000006927000816
:100220000000000000000000000000006927000836
:08023000692700086927000896
:1002380010B5054C237833B9044B13B10448AFF318
:1002480000800123237010BDD801002000000000A9
:10025800C4E0000808B5034B1BB103490348AFF3DA
:10026800008008BD00000000DC010020C4E0000898
:10027800034613F8012B002AFBD1181A01387047DE
:1002880081F0004102E000BF83F0004330B54FEA3F
:1002980041044FEA430594EA050F08BF90EA020FAC
:1002A8001FBF54EA000C55EA020C7FEA645C7FEA3F
:1002B800655C00F0E2804FEA5454D4EB5555B8BF62
:1002C8006D420CDD2C4480EA020281EA030382EAD3
:1002D800000083EA010180EA020281EA0303362D65
:1002E80088BF30BD11F0004F4FEA01314FF4801C38
:1002F8004CEA113102D0404261EB410113F0004F4A
:100308004FEA03334CEA133302D0524263EB430300
:1003180094EA050F00F0A780A4F10104D5F1200E9E
:100328000DDB02FA0EFC22FA05F2801841F10001F9
:1003380003FA0EF2801843FA05F359410EE0A5F1CD
:1003480020050EF1200E012A03FA0EFC28BF4CF0FE
:10035800020C43FA05F3C01851EBE37101F00045B4
:1003680007D54FF0000EDCF1000C7EEB00006EEBC1
:100378000101B1F5801F1BD3B1F5001F0CD349084B
:100388005FEA30004FEA3C0C04F101044FEA4452A2
:1003980012F5800F80F09A80BCF1004F08BF5FEA29
:1003A800500C50F1000041EB045141EA050130BD09
:1003B8005FEA4C0C404141EB0101013C28BFB1F51B
:1003C800801FE9D291F0000F04BF01460020B1FA66
:1003D80081F308BF2033A3F10B03B3F120020CDA39
:1003E8000C3208DD02F1140CC2F10C0201FA0CF017
:1003F80021FA02F10CE002F11402D8BFC2F1200C7C
:1004080001FA02F120FA0CFCDCBF41EA0C01904031
:10041800E41AA2BF01EB0451294330BD6FEA04047A
:100428001F3C1CDA0C340EDC04F11404C4F1200265
:1004380020FA04F001FA02F340EA030021FA04F377
:1004480045EA030130BDC4F10C04C4F1200220FACE
:1004580002F001FA04F340EA0300294630BD21FA0C
:1004680004F0294630BD94F0000F83F4801306BFD2
:1004780081F480110134013D4EE77FEA645C18BFC6
:100488007FEA655C29D094EA050F08BF90EA020F5D
:1004980005D054EA000C04BF1946104630BD91EA55
:1004A800030F1EBF0021002030BD5FEA545C05D158
:1004B8004000494128BF41F0004130BD14F5800497
:1004C8003CBF01F5801130BD01F0004545F0FE410B
:1004D80041F470014FF0000030BD7FEA645C1ABF40
:1004E800194610467FEA655C1CBF0B46024650EA77
:1004F800013406BF52EA033591EA030F41F40021A3
:1005080030BD00BF90F0000F04BF0021704730B528
:100518004FF4806404F132044FF000054FF00001FD
:1005280050E700BF90F0000F04BF0021704730B5BE
:100538004FF4806404F1320410F0004548BF404293
:100548004FF000013EE700BF42004FEAE2014FEAE8
:1005580031014FEA02701FBF12F07F4393F07F4FC3
:1005680081F06051704732F07F4208BF704793F0C6
:100578007F4F04BF41F40021704730B54FF46074D9
:1005880001F0004521F000411CE700BF50EA0102DC
:1005980008BF704730B54FF000050AE050EA010285
:1005A80008BF704730B511F0004502D5404261EBF5
:1005B80041014FF4806404F132045FEA915C3FF436
:1005C800D8AE4FF003025FEADC0C18BF03325FEAD3
:1005D800DC0C18BF033202EBDC02C2F1200300FA84
:1005E80003FC20FA02F001FA03FE40EA0E0021FAA9
:1005F80002F11444BDE600BF70B54FF0FF0C4CF497
:10060800E06C1CEA11541DBF1CEA135594EA0C0F48
:1006180095EA0C0F00F0DEF82C4481EA030621EA83
:100628004C5123EA4C5350EA013518BF52EA0335BE
:1006380041F4801143F4801338D0A0FB02CE4FF070
:100648000005E1FB02E506F00042E0FB03E54FF0A0
:100658000006E1FB03569CF0000F18BF4EF0010E98
:10066800A4F1FF04B6F5007F64F5407404D25FEA94
:100678004E0E6D4146EB060642EAC62141EA555147
:100688004FEAC52040EA5E504FEACE2EB4F1FD0C89
:1006980088BFBCF5E06F1ED8BEF1004F08BF5FEA07
:1006A800500E50F1000041EB045170BD06F00046B9
:1006B80046EA010140EA020081EA0301B4EB5C0466
:1006C800C2BFD4EB0C0541EA045170BD41F480115E
:1006D8004FF0000E013C00F3AB8014F1360FDEBF83
:1006E800002001F0004170BDC4F10004203C35DA5F
:1006F8000C341BDC04F11404C4F1200500FA05F3E2
:1007080020FA04F001FA05F240EA020001F0004282
:1007180021F0004110EBD37021FA04F642EB0601F8
:100728005EEA430E08BF20EAD37070BDC4F10C0422
:10073800C4F1200500FA04F320FA05F001FA04F2E6
:1007480040EA020001F0004110EBD37041F10001D2
:100758005EEA430E08BF20EAD37070BDC4F12005DD
:1007680000FA05F24EEA020E20FA04F301FA05F245
:1007780043EA020321FA04F001F0004121FA04F2ED
:1007880020EA020000EBD3705EEA430E08BF20EABD
:10079800D37070BD94F0000F0FD101F000464000F7
:1007A80041EB010111F4801F08BF013CF7D041EA79
:1007B800060195F0000F18BF704703F0004652007D
:1007C80043EB030313F4801F08BF013DF7D043EA4E
:1007D8000603704794EA0C0F0CEA135518BF95EA04
:1007E8000C0F0CD050EA410618BF52EA4306D1D18B
:1007F80081EA030101F000414FF0000070BD50EAAA
:10080800410606BF1046194652EA430619D094EA33
:100818000C0F02D150EA013613D195EA0C0F05D11D
:1008280052EA03361CBF104619460AD181EA030171
:1008380001F0004141F0FE4141F470014FF0000029
:1008480070BD41F0FE4141F4780170BD70B54FF0C4
:10085800FF0C4CF4E06C1CEA11541DBF1CEA135544
:1008680094EA0C0F95EA0C0F00F0A7F8A4EB050426
:1008780081EA030E52EA03354FEA013100F088801D
:100888004FEA03334FF0805545EA131343EA1263E6
:100898004FEA022245EA111545EA10654FEA00269B
:1008A8000EF000419D4208BF964244F1FD0404F554
:1008B800407402D25B084FEA3202B61A65EB0305B0
:1008C8005B084FEA32024FF480104FF4002CB6EB6D
:1008D800020E75EB030E22BFB61A754640EA0C00ED
:1008E8005B084FEA3202B6EB020E75EB030E22BF2D
:1008F800B61A754640EA5C005B084FEA3202B6EB6E
:10090800020E75EB030E22BFB61A754640EA9C002C
:100918005B084FEA3202B6EB020E75EB030E22BFFC
:10092800B61A754640EADC0055EA060E18D04FEABA
:10093800051545EA16754FEA06164FEAC30343EA5A
:1009480052734FEAC2025FEA1C1CC0D111F4801F27
:100958000BD141EA00014FF000004FF0004CB6E720
:1009680011F4801F04BF01430020B4F1FD0C88BFBF
:10097800BCF5E06F3FF6AFAEB5EB030C04BFB6EBCA
:10098800020C5FEA500C50F1000041EB045170BDBD
:100998000EF0004E4EEA113114EB5C04C2BFD4EBEA
:1009A8000C0541EA045170BD41F480114FF0000E6E
:1009B800013C90E645EA060E8DE60CEA135594EAEA
:1009C8000C0F08BF95EA0C0F3FF43BAF94EA0C0FED
:1009D8000AD150EA01347FF434AF95EA0C0F7FF462
:1009E80025AF104619462CE795EA0C0F06D152EAB6
:1009F80003353FF4FDAE1046194622E750EA41069A
:100A080018BF52EA43067FF4C5AE50EA41047FF4AA
:100A18000DAF52EA43057FF4EBAE12E74FF0FF3C0F
:100A280006E000BF4FF0010C02E000BF4FF0010CE0
:100A38004DF804CD4FEA410C7FEA6C5C4FEA430C59
:100A480018BF7FEA6C5C1BD001B050EA410C0CBFA8
:100A580052EA430C91EA030F02BF90EA020F00200A
:100A6800704710F1000F91EA030F58BF994208BF71
:100A780090422CBFD8176FEAE37040F0010070472E
:100A88004FEA410C7FEA6C5C02D150EA013C07D185
:100A98004FEA430C7FEA6C5CD6D152EA033CD3D0D0
:100AA8005DF8040B704700BF8446104662468C46CA
:100AB8001946634600E000BF01B5FFF7B7FF0028FD
:100AC80048BF10F1000F01BD4DF808EDFFF7F4FF26
:100AD8000CBF012000205DF808FB00BF4DF808EDB1
:100AE800FFF7EAFF34BF012000205DF808FB00BFD4
:100AF8004DF808EDFFF7E0FF94BF012000205DF8F6
:100B080008FB00BF4DF808EDFFF7CEFF94BF0120AA
:100B180000205DF808FB00BF4DF808EDFFF7C4FFA3
:100B280034BF012000205DF808FB00BF4FEA410CEC
:100B38007FEA6C5C02D150EA013C0AD14FEA430CCF
:100B48007FEA6C5C02D152EA033C02D14FF000000C
:100B580070474FF0010070474FEA410212F500124A
:100B680015D211D56FF47873B3EB625212D94FEAEC
:100B7800C12343F0004343EA505311F0004F23FAD6
:100B880002F018BF404270474FF00000704750EA2B
:100B9800013005D111F0004008BF6FF000407047E8
:100BA8004FF00000704700BF4A0011D212F5001242
:100BB80011D20DD56FF47873B3EB62520ED44FEAAD
:100BC800C12343F0004343EA505323FA02F070472D
:100BD8004FF00000704750EA013002D14FF0FF306B
:100BE80070474FF0000070474FEA4102B2F1E0430E
:100BF80024BFB3F5001CDCF1FE5C0DD901F0004CFC
:100C08004FEAC0024CEA5070B2F1004F40EB83004B
:100C180008BF20F00100704711F0804F21D113F177
:100C28003872BCBF01F00040704741F480114FEAB0
:100C38005252C2F11802C2F1200C10FA0CF320FA39
:100C480002F018BF40F001004FEAC1234FEAD32356
:100C580003FA0CFC40EA0C0023FA02F34FEA4303C0
:100C6800CCE77FEA625307D150EA01331EBF4FF049
:100C7800FE4040F44000704701F0004040F0FE4064
:100C880040F40000704700BF53B94AB9002908BFB3
:100C980000281CBF4FF0FF314FF0FF3000F0B0B913
:100CA800ADF1080C6DE904CE00F006F8DDF804E0BB
:100CB800DDE9022304B070472DE9F04F099D88460D
:100CC80004468E46002B4AD18A4217465FD9B2FAAB
:100CD80082F64EB1C6F1200301FA06FEB740B440D1
:100CE80020FA03F343EA0E0E4FEA17481FFA87FC6F
:100CF800230CBEFBF8F108FB11EE01FB0CF243EAF2
:100D08000E439A4207D9FB1801F1FF3002D29A42EA
:100D180000F2548101469B1AA2B2B3FBF8F008FB1B
:100D2800103300FB0CFC42EA034294450BD9BA1875
:100D380000F1FF332CBF01240024944502D9002C74
:100D480000F03F81184640EA0140A2EB0C02002166
:100D58001DB1F2400023C5E90023BDE8F08F8B42A6
:100D680005D90DB1C5E9000100210846F5E7B3FA38
:100D780083F100294ED14345C0F01281824240F2EE
:100D88000F810846002DE8D0C5E9004EE5E7002AA6
:100D980000F0AC80B2FA82F6002E40F0BB808B1ACD
:100DA8004FEA124EBCB20121020C80B2B3FBFEFC2A
:100DB8000EFB1C3342EA034304FB0CF29A420ED9A1
:100DC800FB180CF1FF382CBF4FF001094FF0000958
:100DD8009A4203D9B9F1000F00F0EC80C4469B1A7F
:100DE800B3FBFEF80EFB183304FB08F440EA034299
:100DF80094420BD9BA1808F1FF332CBF0120002008
:100E0800944202D9002800F0D1809846121B48EA83
:100E18000C409DE7C1F120068B4008FA01F400FA66
:100E280001F922FA06F728FA06F88A401F4320FA41
:100E380006F3380C23431FFA87FC1C0CB8FBF0FEA2
:100E480000FB1E8844EA08440EFB0CF8A0450ED9A6
:100E58003C190EF1FF3A2CBF4FF0010B4FF0000B7D
:100E6800A04503D9BBF1000F00F0B880D646A4EB2B
:100E780008041FFA83F8B4FBF0F300FB134403FBE8
:100E88000CFC48EA0444A4450ED93C1903F1FF3090
:100E98002CBF4FF001084FF00008A44503D9B8F162
:100EA800000F00F09F80034643EA0E40A4EB0C04B9
:100EB800A0FB02EC64457346E04602D307D1F14536
:100EC80005D2BEEB02036CEB070C0138E0465DB1BE
:100ED800B9EB030264EB080404FA06F622FA01F3FC
:100EE800CC401E43C5E90064002136E7B1FBF2FCA3
:100EF800010C144680B2964641EA084120269046E5
:100F080040EA01431046B1FBF2F1A3EB080341EAC2
:100F18000C414BE7B740C6F1200301FA06F221FA6B
:100F280003F84FEA174E20FA03F3BCB2B04013435C
:100F3800020C190C80B2B8FBFEF90EFB198841EAC5
:100F4800084109FB04F8884551D9791809F1FF3C93
:100F58002CBF4FF0010A4FF0000A884502D9BAF1B8
:100F6800000F31D0A1EB0801B1FBFEF909FB04F831
:100F78000EFB19119BB243EA0143434535D2FB18D6
:100F880009F1FF312CBF4FF0010A4FF0000A434529
:100F9800BBD2BAF1000FB8D1A9F102013B44B4E7C2
:100FA800841A68EB030201209646EBE63A44A8F15E
:100FB80002082BE7ACF1020C3B4410E702393B4432
:100FC800A9E63A440238BEE6A7EB0808A9F1020CE4
:100FD8004144B1FBFEF909FB04F8C9E7AEF1020E82
:100FE8003C4444E7023B3C445EE749468DE7A1EBBD
:100FF8000801CC46B1FBFEF909FB04F8B8E700BFCD
:10100800704700BF00000000B0B584B000AF87EDA6
:10101800030AC7ED020A87ED011AC7ED001A44F664
:1010280020631846FFF77EFA41A3D3E90023FFF7B0
:10103800E3FA02460B4614461D46F868FFF784FAA1
:1010480002460B4620462946FFF7D6FA02460B46CB
:1010580039490C6810461946FFF7A6FD0346636335
:1010680044F620631846FFF75DFA31A3D3E900235D
:10107800FFF7C2FA02460B4614461D46B868FFF74A
:1010880063FA02460B4620462946FFF7B5FA0246A0
:101098000B4629490C6810461946FFF785FD03469B
:1010A800A36344F620631846FFF73CFA20A3D3E96C
:1010B8000023FFF7A1FA02460B4614461D4678683E
:1010C800FFF742FA02460B4620462946FFF794FAF4
:1010D80002460B4618490C6810461946FFF764FD8E
:1010E8000346E36344F620631846FFF71BFA10A390
:1010F800D3E90023FFF780FA02460B4614461D4643
:101108003868FFF721FA02460B4620462946FFF7C2
:1011180073FA02460B4608490C6810461946FFF751
:1011280043FD0346236400BF1037BD46B0BD00BF72
:101138007B14AE47E17A843F3005002000000000B0
:10114800B0B5AEB000AF002387F8AF30002387F802
:10115800AE30002387F8AD300023A7F8AA3002F09C
:1011680027F800F0AFF900F0FFFC00F033FA00F0C8
:101178006FFA00F0F1F900F0B5FA00F0FFFA00F0AC
:101188006BFB00F0D7FB00F057FC44F620631846D1
:10119800FFF7C8F9C0A3D3E90023FFF72DFA0246E9
:1011A8000B46C1490C6810461946FFF7FDFC03467B
:1011B800636344F620631846FFF7B4F9B6A3D3E98E
:1011C8000023FFF719FA02460B46B7490C68104688
:1011D8001946FFF7E9FC0346A36344F62063184663
:1011E800FFF7A0F9ACA3D3E90023FFF705FA0246FD
:1011F8000B46AD490C6810461946FFF7D5FC034667
:10120800E36344F620631846FFF78CF9A2A3D3E9F9
:101218000023FFF7F1F902460B46A3490C68104674
:101228001946FFF7C1FC0346236400219E4807F0D6
:101238001FFC04219C4807F01BFC08219A4807F072
:1012480017FC0C21984807F013FC44F62063184655
:10125800FFF768F992A3D3E90023FFF7CDF9024617
:101268000B4692490C6810461946FFF79DFC034649
:10127800E36344F620631846FFF754F988A3D3E9DB
:101288000023FFF7B9F902460B4688490C68104657
:101298001946FFF789FC034623640821834807F0B1
:1012A800E7FB0C21814807F0E3FB41F2883002F0AC
:1012B80045F87F4801F0DEFE01F0EAFE01F0F0FE9D
:1012C80040F6B83002F03AF801F0F8FEC7F8B4007A
:1012D80007E001F0F3FEC7F8B40041F2883002F0ED
:1012E8002DF8D7F8B430012BF3D14FF000024FF0AE
:1012F8000003C7E918234FF000024FF00003C7E9C5
:101308001A234FF000024FF00003C7E91C234FF0E7
:1013180000024FF00003C7E912234FF000024FF01C
:101328000003C7E914234FF000024FF00003C7E998
:1013380016234FF000024FF00003C7E906234FF0D1
:1013480000024FF00003C7E908234FF000024FF0F6
:101358000003C7E90A234FF000024FF00003C7E972
:1013680000234FF000024FF00003C7E902234FF0BB
:1013780000024FF00003C7E904230023C7F8B03088
:1013880054E001F00FFBB0EE405AF0EE605AB0EEB8
:10139800416AF0EE616AB0EE427AF0EE627A87ED69
:1013A8001E5B87ED206B87ED227BD7E90045D7E9E7
:1013B8001E014FF000023F4BFFF748FA02460B466A
:1013C80020462946FEF762FF02460B46C7E900237E
:1013D800D7E90245D7E920014FF00002354BFFF766
:1013E80035FA02460B4620462946FEF74FFF0246CD
:1013F8000B46C7E90223D7E90445D7E922014FF094
:1014080000022C4BFFF722FA02460B4620462946DB
:10141800FEF73CFF02460B46C7E90423052001F00E
:101428008DFFD7F8B0300133C7F8B030D7F8B030F7
:10143800042BA6DD4FF00003C7F8A4304FF00003DB
:10144800C7F8A0304FF00003C7F89C304FF00003F6
:10145800C7F8983001F066FFC7F8940001F062FF02
:10146800C7F8900003221449144808F009FE012225
:101478008021134802F0CEFAF1EE061AB1EE061AF0
:10148800F1EE060AB1EE060AFFF7BEFD0A2001F0EA
:1014980055FF00BFF0E700BF9A9999999999A93F1C
:1014A800B81E85EB51B89E3F30050020E4040020AB
:1014B80054040020000014407C0500209C020020F9
:1014C8000008024280B59EB000AF07F11803602201
:1014D800002118460AF065FF3B4600221A605A6050
:1014E8009A60DA601A615A61002002F0DDFB034657
:1014F800002B01D000F0F8FC1023BB6101237B63B3
:101508001023BB634FF00053FB6300233B6507F1D7
:101518001803184602F054FC0346002B01D000F0D3
:10152800E3FC1F233B6000237B600023BB60602338
:10153800FB6000233B6100237B613B460121184689
:1015480003F01AFB0346002B01D000F0CDFC00BFCE
:101558007837BD4680BD000080B500AF1B4B1C4AE4
:101568001A601A4B40F209525A60184B00229A60CE
:10157800164B0122DA60154B00221A61134B002228
:101588005A61124B00229A61104B0022DA610F4B0C
:1015980000221A620D4802F055FA0346002B01D0CA
:1015A80000F0A2FC0021094802F0E7FA0346002BEC
:1015B80001D000F099FC0021044802F029FB034601
:1015C800002B01D000F090FC00BF80BDF40100208A
:1015D8000054004080B500AF1B4B1C4A1A601A4BE0
:1015E80040F209525A60184B00229A60164B0122A9
:1015F800DA60154B00221A61134B00225A61124B14
:1016080000229A61104B0022DA610F4B00221A6205
:101618000D4802F017FA0346002B01D000F064FCD5
:101628000021094802F0A9FA0346002B01D000F076
:101638005BFC0021044802F0EBFA0346002B01D0C2
:1016480000F052FC00BF80BD480200200058004056
:1016580080B500AF214B224A1A60204B4FF4165236
:101668005A601E4B00229A601C4B0022DA601B4B0A
:1016780000221A61194B0C225A61184B00229A61F8
:10168800164B00221A62154B00229A62134B002255
:101698005A66124808F016FC0346002B01D000F0E9
:1016A80023FC00210D4809F09EFF0346002B01D0C2
:1016B80000F01AFC0021094809F0D3FF0346002B6B
:1016C80001D000F011FC054809F054FF0346002B37
:1016D80001D000F009FC00BF80BD00BF9C020020C3
:1016E8000024004680B500AF224B234A1A60214BE4
:1016F8004FF4E1325A601F4B00229A601D4B0022C2
:10170800DA601C4B00221A611A4B0C225A61194BE1
:1017180000229A61174B0022DA61164B00221A62E6
:10172800144B00225A62134B00229A62114808F0A7
:10173800C9FB0346002B01D000F0D6FB00210D4861
:1017480009F051FF0346002B01D000F0CDFB00212A
:10175800084809F086FF0346002B01D000F0C4FBBF
:10176800044809F007FF0346002B01D000F0BCFB3A
:1017780000BF80BD30030020004C004080B584B01D
:1017880000AF3B1D00221A605A609A60304B314A04
:101798001A602F4B4FF480025A602D4B00229A603A
:1017A8002B4B0722DA602A4B00221A61284B0022B1
:1017B8005A61274B4FF080629A61254B0022DA610B
:1017C800234B00221A62224B00225A62204B00222D
:1017D8009A621F4B0722DA621D4B4FF080425A6310
:1017E8001B4B00229A631A4B0022DA63184B002223
:1017F8009A64174B0022DA64154B00221A65144BC1
:1018080000225A65124B00229A65114B0022DA65B4
:101818000F4B00221A660E4806F03CF90346002BCF
:1018280001D000F061FB00237B604FF08053BB6068
:101838000023FB603B1D1946054807F020F80346C6
:10184800002B01D000F050FB00BF1037BD4680BD13
:10185800C40300200030014080B584B000AF3B1DB8
:1018680000221A605A609A60304B314A1A602F4B36
:101878004FF480025A602D4B00229A602B4B0722AE
:10188800DA602A4B00221A61284B00225A61274B42
:101898004FF080629A61254B0022DA61234B0022C7
:1018A8001A62224B00225A62204B00229A621F4B76
:1018B8000722DA621D4B4FF080425A631B4B00220D
:1018C8009A631A4B0022DA63184B00229A64174B6A
:1018D8000022DA64154B00221A65144B00225A655F
:1018E800124B00229A65114B0022DA650F4B002239
:1018F8001A660E4806F0CEF80346002B01D000F019
:10190800F3FA00237B604FF00053BB600023FB60B9
:101918003B1D1946054806F0B2FF0346002B01D0CF
:1019280000F0E2FA00BF1037BD4680BD5404002025
:101938000020004680B58EB000AF07F128030022D2
:101948001A605A609A60DA6007F11C0300221A6074
:101958005A609A603B4600221A605A609A60DA60C0
:101968001A615A619A61324B324A1A60304B03222B
:101978005A602F4B00229A602D4B44F62062DA60A1
:101988002B4B00221A612A4B00229A61284806F044
:10199800B7FF0346002B01D000F0A6FA4FF480539E
:1019A800BB6207F128031946214807F0C7FA034626
:1019B800002B01D000F098FA1D4806F0F8FF034606
:1019C800002B01D000F090FA0023FB6100237B621A
:1019D80007F11C031946164808F0B2F90346002B14
:1019E80001D000F081FA60233B6000237B60002374
:1019F800BB6000233B613B46082219460C4807F0B0
:101A080089F90346002B01D000F06EFA3B460C2200
:101A18001946074807F07EF90346002B01D000F06D
:101A280063FA034800F0E2FC00BF3837BD4680BDCA
:101A3800E40400200004004080B58EB000AF07F138
:101A4800280300221A605A609A60DA6007F11C03C2
:101A580000221A605A609A603B4600221A605A6057
:101A68009A60DA601A615A619A613D4B3D4A1A6080
:101A78003B4B03225A603A4B00229A60384B44F69B
:101A88002062DA60364B00221A61354B00229A61D7
:101A9800334806F035FF0346002B01D000F024FA46
:101AA8004FF48053BB6207F1280319462C4807F00E
:101AB80045FA0346002B01D000F016FA284806F034
:101AC80076FF0346002B01D000F00EFA0023FB61DD
:101AD80000237B6207F11C031946214808F030F9FE
:101AE8000346002B01D000F0FFF960233B60002380
:101AF8007B600023BB6000233B613B460022194604
:101B0800174807F007F90346002B01D000F0ECF95D
:101B18003B4604221946124807F0FCF80346002BFE
:101B280001D000F0E1F93B46082219460C4807F0BD
:101B3800F1F80346002B01D000F0D6F93B460C2201
:101B48001946074807F0E6F80346002B01D000F0D5
:101B5800CBF9034800F04AFC00BF3837BD4680BDCA
:101B680030050020000C004080B58AB000AF07F1B6
:101B7800140300221A605A609A60DA601A61654B91
:101B8800D3F88C30634A43F00403C2F88C30614BBD
:101B9800D3F88C3003F004033B613B695D4BD3F809
:101BA8008C305C4A43F08003C2F88C30594BD3F830
:101BB8008C3003F08003FB60FB68564BD3F88C3005
:101BC800544A43F00103C2F88C30524BD3F88C309E
:101BD80003F00103BB60BB684E4BD3F88C304D4A11
:101BE80043F00203C2F88C304A4BD3F88C3003F030
:101BF80002037B607B68474BD3F88C30454A43F03F
:101C08000803C2F88C30434BD3F88C3003F0080338
:101C18003B603B6800224CF280013F4801F0FAFE2D
:101C2800002203213D4801F0F5FE012240213A48F7
:101C380001F0F0FE01220421394801F0EBFE0122F7
:101C48004021384801F0E6FE4FF440437B61012310
:101C5800BB610023FB6100233B6207F114031946B3
:101C68002D4801F0F7FC03237B610123BB610023AE
:101C7800FB6100233B6207F114031946274801F072
:101C8800E9FC4FF400437B61274BBB610023FB61F8
:101C980007F114031946234801F0DCFCC0237B61DB
:101CA8000123BB610123FB6100233B6207F114039D
:101CB8001946194801F0CEFC4FF480737B611A4B2A
:101CC800BB610023FB6107F114031946124801F0B8
:101CD800C1FC04237B610123BB610123FB61002359
:101CE8003B6207F1140319460D4801F0B3FC402389
:101CF8007B610123BB610123FB6100233B6207F188
:101D080014031946074801F0A5FC00BF2837BD4653
:101D180080BD00BF000C024600080242001C0242BF
:101D2800000C0242000402420000111000000000F2
:101D380080B584B000AF78607B681B685A4A9342CC
:101D480040F0A380594B1B78432B40F09280574BAF
:101D58005B7803F00103FB60544B9B78502B2AD12E
:101D6800FB68002B13D0524B1B681846FEF7ECFBA0
:101D780049A3D3E90023FEF789FA02460B46104629
:101D88001946FEF731FF0346494A136078E0484B8D
:101D98001B681846FEF7D8FB3FA3D3E90023FEF7DC
:101DA80073FA02460B4610461946FEF71DFF034616
:101DB8003F4A136064E03D4B5B78492B2AD1FB68AE
:101DC800002B13D03B4B1B681846FEF7BDFB34A312
:101DD800D3E90023FEF75AFA02460B461046194685
:101DE800FEF702FF0346334A136049E0314B1B6894
:101DF8001846FEF7A9FB2AA3D3E90023FEF744FA05
:101E080002460B4610461946FEF7EEFE0346294ADF
:101E1800136035E0254B5B78442B31D1FB68002BF0
:101E280013D0254B1B681846FEF78EFB1CA3D3E97D
:101E38000023FEF72BFA02460B4610461946FEF71A
:101E4800D3FE03461C4A13601AE01A4B1B68184657
:101E5800FEF77AFB12A3D3E90023FEF715FA024630
:101E68000B4610461946FEF7BFFE0346114A13609B
:101E780006E00E4B1B78442B02D1104B01221A604E
:101E880003220A490E4808F0FBF800BF1037BD4688
:101E980080BD00BFAFF300809A9999999999B93F8D
:101EA8007B14AE47E17A843F002400467C0500207D
:101EB80000000020800500208405002088050020FF
:101EC8009C02002080B582B000AF7860391D4FF6C3
:101ED800FF730122034808F045F87B681846083765
:101EE800BD4680BD9C02002080B400AF72B600BF22
:101EF80000BFFDE780B483B000AF0A4BD3F894303D
:101F0800084A43F00403C2F89430064BD3F89430DF
:101F180003F004037B607B6800BF0C37BD465DF8A7
:101F2800047B7047000C024680B5BCB000AF7860F7
:101F380007F1DC0300221A605A609A60DA601A61BD
:101F480007F11803C022002118460AF02AFA7B6814
:101F58001B684D4A934246D14FF040024FF00003B0
:101F6800C7E906230023FB6707F11803184603F0A7
:101F7800D3F90346002B01D0FFF7B6FF434BD3F844
:101F88008C30424A43F00203C2F88C303F4BD3F8FE
:101F98008C3003F002037B617B694FF4C073C7F890
:101FA800DC301223C7F8E0300023C7F8E430002300
:101FB800C7F8E8300423C7F8EC3007F1DC0319460A
:101FC800334801F047FB314BD3F89C302F4A43F498
:101FD8000013C2F89C302D4BD3F89C3003F4001347
:101FE8003B613B694BE07B681B682A4A934246D1B8
:101FF8004FF080024FF00003C7E906230023C7F81B
:10200800803007F11803184603F086F90346002BC1
:1020180001D0FFF769FF1D4BD3F88C301B4A43F002
:102028000203C2F88C30194BD3F88C3003F002034A
:10203800FB60FB684FF4C043C7F8DC301223C7F8D5
:10204800E0300023C7F8E4300023C7F8E830042361
:10205800C7F8EC3007F1DC0319460D4801F0FAFA2D
:102068000A4BD3F89C30094A43F48003C2F89C30E9
:10207800064BD3F89C3003F48003BB60BB6800BFF9
:10208800F037BD4680BD00BF00540040000C02463A
:10209800000402420058004080B5BCB000AF786030
:1020A80007F1DC0300221A605A609A60DA601A614C
:1020B80007F11803C022002118460AF072F97B685C
:1020C8001B684C4A934245D14FF020024FF0000361
:1020D800C7E906230023BB6707F11803184603F076
:1020E8001BF90346002B01D0FFF7FEFE424BD3F845
:1020F800A830414A43F04003C2F8A8303E4BD3F819
:10210800A83003F040037B617B693B4BD3F88C30EC
:10211800394A43F00403C2F88C30374BD3F88C307B
:1021280003F004033B613B690323C7F8DC30022357
:10213800C7F8E0300023C7F8E4300023C7F8E830D8
:102148000823C7F8EC3007F1DC0319462B4801F0E7
:1021580081FA4AE07B681B68294A934245D14FF0CF
:1021680008024FF00003C7E9062300233B6707F185
:102178001803184603F0D0F80346002B01D0FFF7E8
:10218800B3FE1D4BD3F89C301B4A43F40023C2F81E
:102198009C30194BD3F89C3003F40023FB60FB6898
:1021A800154BD3F88C30144A43F00403C2F88C3032
:1021B800114BD3F88C3003F00403BB60BB684FF4B9
:1021C8004063C7F8DC300223C7F8E0300023C7F8C3
:1021D800E4300023C7F8E8300823C7F8EC3007F1EB
:1021E800DC031946054801F035FA00BFF037BD4653
:1021F80080BD00BF00240046000C024600080242D1
:10220800004C004080B5BCB000AF786007F1DC033B
:1022180000221A605A609A60DA601A6107F118039E
:10222800C022002118460AF0BCF87B681B684D4A9A
:10223800934247D14FF400024FF00003C7E9062349
:102248004FF48013C7F8C43007F11803184603F099
:1022580063F80346002B01D0FFF746FE424BD3F844
:10226800A430414A43F48053C2F8A4303E4BD3F81B
:10227800A43003F480537B617B693B4BD3F88C30EB
:10228800394A43F00103C2F88C30374BD3F88C300D
:1022980003F001033B613B69E023C7F8DC3002230C
:1022A800C7F8E0300023C7F8E4300023C7F8E83067
:1022B8000523C7F8EC3007F1DC0319462B4801F079
:1022C800C9F94AE07B681B68294A934245D14FF017
:1022D80000724FF00003C7E906230823C7F8CC3083
:1022E80007F11803184603F017F80346002B01D02E
:1022F800FFF7FAFD1C4BD3F8A8301B4A43F0200324
:10230800C2F8A830184BD3F8A83003F02003FB60BC
:10231800FB68154BD3F88C30134A43F00203C2F81C
:102328008C30114BD3F88C3003F00203BB60BB68D0
:102338003823C7F8DC300223C7F8E0300023C7F899
:10234800E4300023C7F8E8300623C7F8EC3007F17B
:10235800DC031946074801F07DF900BFF037BD4698
:1023680080BD00BF00300140000C02460000024260
:10237800002000460004024280B485B000AF7860B7
:102388007B681B68164A93420FD1164BD3F89C30D2
:10239800144A43F00203C2F89C30124BD3F89C3025
:1023A80003F00203FB60FB6813E07B681B680E4ABE
:1023B80093420ED10B4BD3F89C300A4A43F00803E2
:1023C800C2F89C30074BD3F89C3003F00803BB607D
:1023D800BB6800BF1437BD465DF8047B704700BF7B
:1023E80000040040000C0246000C004080B58AB092
:1023F80000AF786007F1140300221A605A609A60EF
:10240800DA601A617B681B68254A93421FD1254B05
:10241800D3F88C30234A43F00203C2F88C30214BA6
:10242800D3F88C3003F002033B613B6903237B61E3
:102438000223BB610023FB6100233B6202237B6212
:1024480007F114031946184801F004F923E07B68E2
:102458001B68164A93421ED1124BD3F88C30114A8E
:1024680043F00103C2F88C300E4BD3F88C3003F0E4
:102478000103FB60FB680F237B610223BB61002320
:10248800FB6100233B6202237B6207F114031946B8
:10249800074801F0DFF800BF2837BD4680BD00BF00
:1024A80000040040000C024600040242000C0040F8
:1024B8000000024280B400AF00BFFDE780B400AF67
:1024C80000BFFDE780B400AF00BFFDE780B400AFF8
:1024D80000BFFDE780B400AF00BFFDE780B400AFE8
:1024E80000BFBD465DF8047B704780B400AF00BFF5
:1024F800BD465DF8047B704780B400AF00BFBD46A1
:102508005DF8047B704780B500AF00F0F7FE00BFB0
:1025180080BD80B400AF01231846BD465DF8047B3A
:10252800704780B582B000AF7860396009F09CFFD1
:10253800034616221A604FF0FF3318460837BD4687
:1025480080BD80B582B000AF78604FF0FF31786809
:10255800FFF7E7FF00BFFDE780B586B000AFF86082
:10256800B9607A6000237B610AE0AFF3008001461E
:10257800BB685A1CBA60CAB21A707B6901337B61A6
:102588007A697B689A42F0DB7B6818461837BD4643
:1025980080BD80B586B000AFF860B9607A6000236E
:1025A8007B6109E0BB685A1CBA601B781846FFF7C4
:1025B80089FC7B6901337B617A697B689A42F1DB2C
:1025C8007B6818461837BD4680BD80B483B000AF1D
:1025D80078604FF0FF3318460C37BD465DF8047B32
:1025E800704780B483B000AF786039603B684FF4BF
:1025F80000525A60002318460C37BD465DF8047B2C
:10260800704780B483B000AF7860012318460C3758
:10261800BD465DF8047B704780B485B000AFF860B4
:10262800B9607A60002318461437BD465DF8047B0C
:102638007047000080B586B000AF7860144A154B2B
:10264800D31A7B617B693B61134B1B68002B02D15A
:10265800114B124A1A60104B1A687B6813443A6986
:102668009A4207D209F000FF03460C221A604FF085
:10267800FF3309E0084B1B68FB60074B1A687B684F
:102688001344054A1360FB6818461837BD4680BDD9
:1026980000000420000400008C0500200007002032
:1026A80080B400AF184BD3F88830174A43F470034E
:1026B800C2F88830154B01221A60144B0022DA61E7
:1026C800124B00221A62114B00225A620F4B1B68F0
:1026D8000E4A23F0A85323F4102313600B4B002257
:1026E8009A620A4B1B68094A23F480231360074B3C
:1026F80000221A65044B4FF000629A6000BFBD4685
:102708005DF8047B704700BF00ED00E0000C024656
:102718000D488546FFF7C4FF0C480D490D4A0023B4
:1027280002E0D458C4500433C4188C42F9D30A4A7E
:102738000A4C002301E013600432A242FBD309F0E3
:1027480099FEFEF7FDFCFEE70000042000000020D3
:10275800D801002064E50008D8010020FA0600200E
:10276800FEE7000080B584B000AF786000F0F2F9B1
:10277800064A7B68136000F001F90346FB6000F02D
:10278800D3F800BF1037BD4680BD00BF90050020BC
:1027980080B500AF002000F06DF90A210A2000F092
:1027A80041F9802000F0B8F9022000F0A3F9502088
:1027B80000F08EF900BF80BD80B594B000AF012352
:1027C80087F84F30032000F055F90C210A2000F05B
:1027D80029F9052000F0B2FD00F0B0F90D216D20B7
:1027E80000F0EEF900F0B6F9372000F0A7FD00F090
:1027F800D9F8B0EE405AF0EE605AB0EE416AF0EE09
:10280800616AB0EE427AF0EE627A87ED0C5B87ED92
:102818000E6B87ED107B00F091F909216D2000F017
:10282800CFF900F097F9372000F088FD00F0BAF8EA
:10283800B0EE405AF0EE605AB0EE416AF0EE616ACE
:10284800B0EE427AF0EE627A87ED065B87ED086BB0
:1028580087ED0A7B00F072F900216D2000F0B0F9D5
:1028680000F078F9372000F069FD97ED063B97ED09
:10287800084B97ED0A5B97ED0C2B97ED0E6B97EDD8
:10288800107BB0EE420AF0EE620AB0EE461AF0EEA5
:10289800661AB0EE472AF0EE672A00F02EFCB0EE7A
:1028A800405AF0EE605AB0EE416AF0EE616AB0EE5E
:1028B800427AF0EE627A87ED005B87ED026B87ED76
:1028C800047BD7E9000114A3D3E90023FEF71AF922
:1028D8000346002B15D0D7E902010FA3D3E9002343
:1028E800FEF710F90346002B0BD0D7E904010CA31F
:1028F800D3E90023FEF706F90346002B01D0012394
:1029080000E0002387F84F3097F84F3018465037CB
:10291800BD4680BDAFF3008005A3923A019D2340D8
:1029280005A3923A019D134080B582B000AF00F034
:1029380005F93B1D02221946402000F017F900F066
:1029480009F93B791B09DAB20A4B1A703B7903F093
:102958000F03DAB2084B1A707B7903F00303DBB27A
:102968007B717B79184600F013FA00BF0837BD4623
:1029780080BD00BFA0050020A105002080B582B061
:1029880000AF0023FB7100F0D9F8FB1D01221946A6
:10299800002000F0EBF800F0DDF8FB791846083766
:1029A800BD4680BDB0B58EB000AF00F0C7F807F1E6
:1029B800180306221946122000F0D8F800F0CAF8C9
:1029C80007F11803184600F017F9B0EE405AF0EE78
:1029D800605AB0EE416AF0EE616AB0EE427AF0EE0B
:1029E800627A87ED085B87ED0A6B87ED0C7BD7E988
:1029F8000845D7E90A01D7E90C2345EC154B41EC0A
:102A0800160B43EC172BB0EE450AF0EE650AB0EE54
:102A1800461AF0EE661AB0EE472AF0EE672A383703
:102A2800BD46B0BD80B584B000AF03460A46FB7111
:102A38001346BB7197F907301B015AB297F9063054
:102A480013435BB2FB7300F079F8FB7B1946402017
:102A580000F0B6F800F07EF8044AFB791370044AD7
:102A6800BB79137000BF1037BD4680BDA00500209C
:102A7800A105002080B582B000AF0346FB7100F0CD
:102A88005DF8FB791946412000F09AF800F062F8E9
:102A9800FB79184600F07CF900BF0837BD4680BDB9
:102AA80080B500AF00F04AF800217C2000F088F8DB
:102AB80000F050F800BF80BD80B500AF00F03EF8D0
:102AC80004217D2000F07CF800F044F800BF80BDB0
:102AD80080B582B000AF0346FB7100F02FF8FB7998
:102AE8001946492000F06CF800F034F800BF0837A8
:102AF800BD4680BD80B582B000AF0346FB7100F0D3
:102B08001DF8FB791946482000F05AF800F022F821
:102B180000BF0837BD4680BD80B582B000AF034610
:102B2800FB7100F00BF8FB791946452000F048F8D6
:102B380000F010F800BF0837BD4680BD80B500AF73
:102B480000220421024800F065FF00BF80BD00BFDD
:102B5800000C024280B500AF01220421024800F0B7
:102B680059FF00BF80BD00BF000C024280B584B091
:102B780000AF0346B9607A60FB73FB7B63F07F03A9
:102B8800DBB2FB730D4B186807F10F0164230122B8
:102B980005F096F8094B186864230122B96805F016
:102BA800A3FA064B18687B689AB26423B96805F0E3
:102BB8009BFA00BF1037BD4680BD00BF90050020BE
:102BC80080B584B000AF03460A46FB711346BB715B
:102BD800FB793B73BB797B73054B186807F10C01D4
:102BE8006423022205F06CF800BF1037BD4680BD93
:102BF8009005002000000000B0B598B000AFF86163
:102C0800FB6901331B781B029BB2FA6912781344E3
:102C18009BB21BB21A465A4B1B78194602238B40AB
:102C280002FB03F3FB65FB6903331B781B029BB2B2
:102C3800FA690232127813449BB21BB21A46504BFF
:102C48001B78194602238B4002FB03F3BB65FB6923
:102C580005331B781B029BB2FA69043212781344BD
:102C68009BB21BB21A46464B1B78194602238B406F
:102C780002FB03F37B65F86DFDF754FC4FF000028F
:102C8800404BFDF7E3FD02460B46104619464FF050
:102C980000023D4BFDF7B0FC02460B4610461946B4
:102CA80035A3D3E90023FDF7A7FC02460B46C7E985
:102CB8000823786DFDF736FC4FF00002314BFDF725
:102CC800C5FD02460B46104619464FF000022E4B32
:102CD800FDF792FC02460B461046194626A3D3E997
:102CE8000023FDF789FC02460B46C7E90C23B86DA3
:102CF800FDF718FC4FF00002224BFDF7A7FD024636
:102D08000B46104619464FF000021F4BFDF774FCA6
:102D180002460B461046194617A3D3E90023FDF7D0
:102D28006BFC02460B46C7E90A2307F1380407F192
:102D380020050FCD0FC495E8030084E80300D7E908
:102D48000E45D7E91001D7E9122345EC154B41ECA4
:102D5800160B43EC172BB0EE450AF0EE650AB0EE01
:102D6800461AF0EE661AB0EE472AF0EE672A603788
:102D7800BD46B0BDAFF3008005A3923A019D234044
:102D8800940500200000E0400000F83F000000002B
:102D980080B483B000AF0346FB71254AFB791370FA
:102DA800FB79032B26D801A252F823F0C52D000881
:102DB800D32D0008E12D0008EF2D00081D4914A3AC
:102DC800D3E90023C1E900231CE01A4912A3D3E97F
:102DD8000023C1E9002315E0164911A3D3E9002314
:102DE800C1E900230EE013490FA3D3E90023C1E989
:102DF800002307E00F494FF000024FF00003C1E93C
:102E0800002300BF00BF0C37BD465DF8047B704748
:102E180088F4DBD7816B3D4088F4DBD7816B4D406C
:102E280088F4DBD7816B5D4088F4DBD7816B6D401C
:102E3800940500209805002080B582B000AF786026
:102E480000F0D0F8044A7B68136000F017F800BF60
:102E58000837BD4680BD00BFA405002080B500AF7F
:102E6800012000F077F8022000F08CF8802000F0B4
:102E78009BF800F003F800BF80BD000080B582B069
:102E880000AF00F0A3F83B1D022219460F2000F006
:102E9800B5F800F0A7F83A79054B1A707B7903F07A
:102EA8007F03DAB2034B1A7000BF0837BD4680BDF6
:102EB800A8050020A905002080B582B000AF002336
:102EC800BB710023FB7100F081F801213C2000F068
:102ED800B7F800F087F80FE0642000F02FFA00F050
:102EE80075F8BB1D012219463C2000F087F800F058
:102EF80079F8FB790133FB71BB7903F00203002BEE
:102F080002D1FB79092BE7D9BB7903F00203002B27
:102F180008D0BB7903F00403002B0CBF0123002366
:102F2800DBB200E0002318460837BD4680BD80B5F7
:102F380082B000AF0346FB7100F048F8FB791946F0
:102F4800112000F07DF800F04DF800BF0837BD46AD
:102F580080BD000080B582B000AF0346FB7100F071
:102F680035F8074AFB791370FB7919460F2000F0F2
:102F780067F800F037F800BF0837BD4680BD00BFCE
:102F8800A805002080B582B000AF0346FB7100F0B1
:102F98001DF8FB791946102000F052F800F022F8CD
:102FA80000BF0837BD4680BD80B582B000AF03467C
:102FB800FB7100F00BF8FB7919463E2000F040F851
:102FC80000F010F800BF0837BD4680BD80B500AFDF
:102FD80000224021024800F01DFD00BF80BD00BF57
:102FE8000004024280B500AF01224021024800F0EF
:102FF80011FD00BF80BD00BF0004024280B586B04D
:1030080000AF0346B9607A60FB73FB7B63F07F0314
:10301800DBB2FB75094B186807F11701642301221D
:1030280004F04EFE054B18687B689AB26423B968B1
:1030380005F05AF800BF1837BD4680BDA40500202A
:1030480080B584B000AF03460A46FB711346BB71D6
:10305800FB793B73BB797B73054B186807F10C014F
:103068006423022204F02CFE00BF1037BD4680BD49
:10307800A405002080B582B000AF78607868FFF7BB
:1030880071FB7868FFF7D8FE00BF0837BD4680BDE2
:1030980080B500AFFFF77CFBFFF7E0FE00BF80BD07
:1030A80080B500AFFFF7FCFCFFF706FD0020FFF737
:1030B8003EFF642000F042F900BF80BD80B582B0B9
:1030C80000AF00237B60FFF777FB0346002B02D19C
:1030D8004FF0FF337B60FFF7EFFE0346002B02D172
:1030E8007B68023B7B607B68002B01D07B6800E03B
:1030F800012318460837BD4680BDB0B59EB000AF65
:10310800B0EE446AF0EE646AB0EE457AF0EE657AA5
:1031180087ED0C0B87ED0E1B87ED102B87ED063B1B
:1031280087ED086B87ED0A7BD7E90C01D7E9062301
:10313800FDF7AAF802460B46C7E91223D7E90E01A4
:10314800D7E90823FDF7A0F802460B46C7E9142380
:10315800D7E91001D7E90A23FDF796F802460B468E
:10316800C7E9162307F1600407F148050FCD0FC41E
:1031780095E8030084E80300D7E91845D7E91A0160
:10318800D7E91C2345EC154B41EC160B43EC172BE8
:10319800B0EE450AF0EE650AB0EE461AF0EE661A91
:1031A800B0EE472AF0EE672A7837BD46B0BD00007A
:1031B80080B500AF124B1B68114A43F4807313604B
:1031C800032000F06EF901F0C9FE02460D4B1B6AA0
:1031D80003F00F030C49CB5C22FA03F30B4A13608C
:1031E800042000F0A5F90F2000F012F80346002B88
:1031F80001D0012302E0FEF77DFE0023184680BDC2
:1032080000200240000C0246E0E000080400002014
:1032180080B584B000AF78600023FB60334B1B7827
:10322800002B01D101235CE0314B1B6803F0040340
:10323800042B0CD12F4B1A682C4B1B7819464FF4D2
:103248007A73B3FBF1F3B2FBF3F3FB6037E000F002
:10325800C7F9B860BB68022B23D0BB68022B2DD8F6
:10326800BB68002B03D0BB68012B0DD026E0214B97
:103278001A681E4B1B7819464FF4FA53B3FBF1F347
:10328800B2FBF3F3FB601AE0184B1B781A464FF4B5
:103298007A73B3FBF2F34FF4FA42B2FBF3F3FB6039
:1032A8000DE0124B1B781A464FF47A73B3FBF2F316
:1032B8004FF40042B2FBF3F3FB6000E000BFF86894
:1032C80000F014F90346002B01D0012309E0002285
:1032D80079684FF0FF3000F0EFF8074A7B68136019
:1032E800002318461037BD4680BD00BF0C000020E3
:1032F80010E000E0040000200800002080B400AFC7
:10330800064B1B781A46064B1B681344044A136085
:1033180000BFBD465DF8047B704700BF0C0000206D
:10332800AC05002080B400AF034B1B681846BD46AF
:103338005DF8047B704700BFAC05002080B584B001
:1033480000AF7860FFF7EEFFB8607B68FB60FB6852
:10335800B3F1FF3F05D00A4B1B781A46FB681344AC
:10336800FB6000BFFFF7DEFF0246BB68D31AFA68AE
:103378009A42F7D800BF00BF1037BD4680BD00BFD6
:103388000C00002080B485B000AF78607B6803F043
:103398000703FB600C4BDB68BB60BA684FF6FF03A2
:1033A8001340BB60FB681A02BB68134343F0BF635A
:1033B80043F40033BB60044ABB68D36000BF1437D2
:1033C800BD465DF8047B704700ED00E080B400AFB7
:1033D800044BDB681B0A03F007031846BD465DF87B
:1033E800047B704700ED00E080B483B000AF034673
:1033F8003960FB7197F90730002B0ADB3B68DAB2BA
:103408000C4997F907301201D2B20B4483F8002314
:103418000AE03B68DAB20849FB7903F00F03043B82
:103428001201D2B20B441A7600BF0C37BD465DF8C4
:10343800047B704700E100E000ED00E080B489B053
:1034480000AFF860B9607A60FB6803F00703FB61BE
:10345800FB69C3F10703042B28BF0423BB61FB6985
:103468000433062B02D9FB69033B00E000237B6190
:103478004FF0FF32BB6902FA03F3DA43BB681A4024
:103488007B699A404FF0FF317B6901FA03F3D94316
:103498007B680B40134318462437BD465DF8047B10
:1034A800704780B582B000AF78607868FFF76AFF30
:1034B80000BF0837BD4680BD80B586B000AF034663
:1034C800B9607A60FB73FFF781FF78617A68B96841
:1034D8007869FFF7B3FF024697F90F30114618468F
:1034E800FFF782FF00BF1837BD4680BD80B483B0A8
:1034F80000AF78607B68013BB3F1807F01D3012383
:103508000DE00A4A7B68013B5360084B00229A6031
:10351800064B1B68054A43F0030313600023184653
:103528000C37BD465DF8047B704700BF10E000E033
:1035380080B483B000AF78607B68042B44D801A2C4
:1035480052F823F06F3500088D350008AF350008B4
:10355800D1350008613500081F4B1B681E4A43F02F
:103568000403136031E01C4B1B681B4A23F004035F
:1035780013601A4BD3F8E030184A23F44003C2F81A
:10358800E03022E0144B1B68134A23F00403136055
:10359800124BD3F8E03023F44003104A43F480037D
:1035A800C2F8E03011E00C4B1B680B4A23F004030F
:1035B80013600A4BD3F8E03023F44003074A43F47E
:1035C8000003C2F8E03000E000BF00BF0C37BD4682
:1035D8005DF8047B704700BF10E000E0000C024675
:1035E80080B483B000AF194B1B6803F00403002BB1
:1035F80002D004237B6021E0154BD3F8E03003F4BC
:1036080040033B603B68B3F5000F11D03B68B3F54E
:10361800000F10D83B68002B04D03B68B3F5800F2F
:1036280003D008E000237B6008E001237B6005E00D
:1036380002237B6002E000237B6000BF7B681846A2
:103648000C37BD465DF8047B704700BF10E000E012
:10365800000C024680B489B000AF7860396000235E
:103668007B617B683B61C2E13B681A6801217B6929
:1036780001FA03F31340FB607B69BB61FB68002B15
:1036880000F0B2817B68554A93425DD17B681B6824
:10369800FB6101227B6902FA03F3DB43FA691340F9
:1036A800FB613B685B6803F001027B6902FA03F384
:1036B800FA691343FB617B68FA691A60484A7B69B7
:1036C80052F833303B61464A7B69DB0013445B6840
:1036D800BB61BB69DA083B69083253F82230FB61E9
:1036E800BB6903F007039B000F2202FA03F3DB43D5
:1036F800FA691340FB61BB6903F007039B000B22C7
:1037080002FA03F3FA691343FB61BB69DA083B6900
:103718000832F96943F822103B691B68FB61BB69F1
:103728005B00032202FA03F3DB43FA691340FB61EF
:10373800BB695B00022202FA03F3FA691343FB61D7
:103748003B69FA691A6067E03B685B68022B03D043
:103758003B685B68122B45D17B69DA087B680832C5
:1037680053F82230FB617B6903F007039B000F22AB
:1037780002FA03F3DB43FA691340FB613B681B69F8
:1037880003F00F027B6903F007039B0002FA03F3BF
:10379800FA691343FB617B69DA087B680832F969C7
:1037A80043F822103B691B68FB61BB695B0003227D
:1037B80002FA03F3DB43FA691340FB613B685B6879
:1037C80003F00302BB695B0002FA03F3FA691343CF
:1037D800FB613B69FA691A601EE000BF00000246FF
:1037E80038E100083B691B68FB61BB695B00032289
:1037F80002FA03F3DB43FA691340FB613B685B6839
:1038080003F00302BB695B0002FA03F3FA6913438E
:10381800FB613B69FA691A603B685B68012B0BD056
:103828003B685B68022B07D03B685B68112B03D0B1
:103838003B685B68122B30D13B699B68FB61BB69B5
:103848005B00032202FA03F3DB43FA691340FB61CE
:103858003B68DA68BB695B0002FA03F3FA69134351
:10386800FB613B69FA699A603B695B68FB6101220D
:10387800BB6902FA03F3DB43FA691340FB613B6857
:103888005B681B0903F00102BB6902FA03F3FA69DA
:103898001343FB613B69FA695A603B685B68032B19
:1038A80007D13B685B68032B1BD13B689B68012BE6
:1038B80017D03B69DB68FB61BB695B00032202FA36
:1038C80003F3DB43FA691340FB613B689A68BB6901
:1038D8005B0002FA03F3FA691343FB613B69FA6977
:1038E800DA603B685B6803F08053002B7CD0474A62
:1038F8007B699B08183352F82330FB617B6903F01E
:103908000303DB000F2202FA03F3DB43FA691340D7
:10391800FB617B689A0A3E4B13407A6902F0030206
:10392800D2009340FA691343FB6138497B699B08CD
:103938001833FA6941F82320344B1B68FB61FB6894
:10394800DB43FA691340FB613B685B6803F480134F
:10395800002B03D0FA69FB681343FB612B4AFB6910
:1039680013602A4B5B68FB61FB68DB43FA69134011
:10397800FB613B685B6803F40013002B03D0FA6912
:10398800FB681343FB61214AFB6953601F4BD3F863
:103998008430FB61FB68DB43FA691340FB613B68D9
:1039A8005B6803F40033002B03D0FA69FB68134308
:1039B800FB61164AFB69C2F88430144BD3F8803097
:1039C800FB61FB68DB43FA691340FB613B685B689A
:1039D80003F48033002B03D0FA69FB681343FB61BF
:1039E8000A4AFB69C2F880307B6901337B613B6816
:1039F8001A687B6922FA03F3002B7FF435AE00BF07
:103A080000BF2437BD465DF8047B7047002002469E
:103A18007F7F2F0080B483B000AF78600B467B8037
:103A280013467B707B78002B03D07A887B689A6179
:103A380002E07A887B689A6200BF0C37BD465DF861
:103A4800047B704780B582B000AF78607B68002B3C
:103A580001D101238DE07B6893F84130DBB2002B64
:103A680006D17B68002283F840207868FEF75CFA6C
:103A78007B68242283F841207B681B681A687B686E
:103A88001B6822F001021A607B685A687B681B6811
:103A980022F070621A617B681B689A687B681B68F1
:103AA80022F400429A607B68DB68012B07D17B68AF
:103AB8009A687B681B6842F400429A6006E07B685B
:103AC8009A687B681B6842F404429A607B68DB68EA
:103AD800022B08D17B681B685A687B681B6842F414
:103AE80000625A6007E07B681B685A687B681B683D
:103AF80022F400625A607B681B685B687A68126807
:103B080043F0007343F4004353607B681B68DA6832
:103B18007B681B6822F40042DA607B681A697B685C
:103B28005B6942EA03017B689B691A027B681B6830
:103B38000A43DA607B68D9697B681A6A7B681B6804
:103B48000A431A607B681B681A687B681B6842F026
:103B580001021A607B6800225A647B68202283F87D
:103B680041207B6800221A637B68002283F8422088
:103B7800002318460837BD4680BD80B483B000AF27
:103B8800786039607B6893F84130DBB2202B38D1FC
:103B98007B6893F84030012B01D1022332E07B6827
:103BA800012283F840207B68242283F841207B6827
:103BB8001B681A687B681B6822F001021A607B6820
:103BC8001B681A687B681B6822F480521A607B683D
:103BD8001B6819687B681B683A680A431A607B6827
:103BE8001B681A687B681B6842F001021A607B68D0
:103BF800202283F841207B68002283F8402000239C
:103C080000E0022318460C37BD465DF8047B704778
:103C180080B485B000AF786039607B6893F8413034
:103C2800DBB2202B39D17B6893F84030012B01D1CE
:103C3800022333E07B68012283F840207B6824223A
:103C480083F841207B681B681A687B681B6822F030
:103C580001021A607B681B681B68FB60FB6823F421
:103C68007063FB603B681B02FA681343FB607B6868
:103C78001B68FA681A607B681B681A687B681B688F
:103C880042F001021A607B68202283F841207B6899
:103C9800002283F84020002300E00223184614374E
:103CA800BD465DF8047B704780B485B000AF78608E
:103CB800394BDB6B03F44033BB60BA687B689A42CC
:103CC8000BD17B68B3F5803F05D9334BDB68324AAB
:103CD80043F48023D360002357E07B68B3F5803F2B
:103CE8000AD92D4BDB6823F4E0227B6813432A4A68
:103CF80043F48023D36007E0274BDB6823F4E022FA
:103D080025497B681343CB60244B1B68244AA2FBDC
:103D180003239B09322202FB03F3214AA2FB03235C
:103D28009B090133FB6002E0FB68013BFB601A4B17
:103D3800DB6803F40043002B02D1FB68002BF3D1AE
:103D4800FB68002B1BD0154B1B68154AA2FB0323ED
:103D58009B09322202FB03F3114AA2FB03239B09AE
:103D68000133FB6002E0FB68013BFB600A4BDB6B45
:103D780003F40043002B02D1FB68002BF3D1FB684E
:103D8800002B01D1032300E0002318461437BD4659
:103D98005DF8047B704700BF00080246040000205D
:103DA800D34D621080B400AF044BDB6B03F4403397
:103DB8001846BD465DF8047B704700BF0008024600
:103DC80080B58EB000AF7860002387F837307B6805
:103DD800002B02D1012300F0C8BE994BDB6903F028
:103DE8000C033B63964B9B6A03F00303FB627B68FF
:103DF8001B6803F01003002B00F06C813B6B002B59
:103E080007D03B6B0C2B40F0DE80FB6A012B40F0A7
:103E1800DA807B68DB69002B02D1012300F0A5BEA4
:103E28007B685A6A864B9B6803F40003002B04D016
:103E3800834B9B6803F0704305E0814BD3F8F43063
:103E48001B0403F07043934255D23B6B002B0AD1FD
:103E58007B685B6A184601F0D9F90346002B02D04B
:103E6800012300F082BE764B9B68754A43F4000339
:103E78009360734B9B6823F070427B685B6A704960
:103E880013438B607B685B6AB3F1404F09D36C4B7B
:103E9800DB6823F01F027B681B6A69491343CB6008
:103EA8007EE07B685B6A002B0ADA654BDB6823F4EB
:103EB80078727B681B6A5B0161491343CB606FE0D2
:103EC8007B685B6AB3F1804F0AD35D4BDB6823F4F0
:103ED800F8427B681B6A9B0259491343CB605FE039
:103EE800574BDB6823F478227B681B6ADB03544951
:103EF8001343CB6054E0524B9B68514A43F4000390
:103F080093604F4B9B6823F070427B685B6A4C4917
:103F180013438B607B685B6AB3F1404F09D3484B0E
:103F2800DB6823F01F027B681B6A45491343CB609B
:103F380028E07B685B6A002B0ADA414BDB6823F4D4
:103F480078727B681B6A5B013D491343CB6019E0BB
:103F58007B685B6AB3F1804F0AD3394BDB6823F483
:103F6800F8427B681B6A9B0235491343CB6009E022
:103F7800334BDB6823F478227B681B6ADB03304908
:103F88001343CB603B6B002B0AD17B685B6A1846F6
:103F980001F03CF90346002B02D0012300F0E5BDF7
:103FA80001F0DEF8274B1B681846FFF731F9034686
:103FB80087F8273097F82730002B00F08A8097F889
:103FC800273000F0D2BD7B68DB69002B66D01C4B24
:103FD8001B681B4A43F001031360FFF7A3F9B8629B
:103FE80009E0FFF79FF90246BB6AD31A022B02D9F0
:103FF800032300F0BABD124B1B6803F00403002B27
:10400800EFD00F4B9B680E4A43F4000393600C4BB0
:104018009B6823F070427B685B6A094913438B6095
:104028007B685B6AB3F1404F0ED3054BDB6823F026
:104038001F027B681B6A02491343CB604AE000BF3A
:10404800000C0246080000207B685B6A002B0ADA35
:10405800984BDB6823F478727B681B6A5B0195498F
:104068001343CB6036E07B685B6AB3F1804F0AD3B9
:10407800904BDB6823F4F8427B681B6A9B028D49EE
:104088001343CB6026E08B4BDB6823F478227B68F4
:104098001B6ADB0387491343CB601BE0854B1B6816
:1040A800844A23F001031360FFF73CF9B86209E082
:1040B800FFF738F90246BB6AD31A022B02D9032349
:1040C80000F053BD7B4B1B6803F00403002BEFD1BA
:1040D80000E000BF7B681B6803F00103002B00F0C1
:1040E8008B803B6B082B05D03B6B0C2B09D1FB6AF3
:1040F800032B06D17B685B68002B7DD1012300F080
:1041080034BD7B685B68B3F5803F06D1694B1B689B
:10411800684A43F48033136041E07B685B68B3F519
:10412800A02F12D1634B1B68624A43F480231360AB
:10413800604B1B685F4A23F4801313605D4B1B6858
:104148005C4A43F48033136029E07B685B68B3F50D
:10415800A81F12D1574B1B68564A43F4802313609B
:10416800544B1B68534A43F480131360514B1B682C
:10417800504A43F48033136011E04E4B1B684D4A9C
:1041880023F4803313604B4B1B684A4A23F4802383
:104198001360484B1B68474A23F4801313607B68FD
:1041A8005B68002B14D0FFF7BDF8B86209E0FFF791
:1041B800B9F80246BB6AD31A642B02D9032300F06C
:1041C800D4BC3C4B1B6803F40033002BEFD013E046
:1041D800FFF7A8F8B86209E0FFF7A4F80246BB6A3F
:1041E800D31A642B02D9032300F0BFBC314B1B68E0
:1041F80003F40033002BEFD17B681B6803F0020344
:10420800002B5FD03B6B042B05D03B6B0C2B14D1E0
:10421800FB6A022B11D17B68DB68002B02D10123DA
:1042280000F0A3BC234B1B6923F4F8127B681B69BD
:104238001B04204913430B6144E07B68DB68002BB7
:1042480024D01C4B1B681B4A43F480731360FFF790
:1042580069F8B86209E0FFF765F80246BB6AD31A45
:10426800022B02D9032300F080BC124B1B6803F415
:104278008063002BEFD00F4B1B6923F4F8127B6887
:104288001B691B040B4913430B611BE0094B1B689B
:10429800084A23F480731360FFF744F8B8620BE010
:1042A800FFF740F80246BB6AD31A022B04D903234E
:1042B80000F05BBC000C0246AF4B1B6803F4806344
:1042C800002BEDD17B681B6803F00803002B00F07E
:1042D800C880002387F83630A74BD3F8943003F012
:1042E8000403002B11D1A44BD3F89430A24A43F015
:1042F8000403C2F89430A04BD3F8943003F00403BD
:104308007B617B69012387F836309C4B9B6A03F0FD
:104318000103002B19D1994B9B6A984A43F001037A
:104328009362FEF7FFFFB86209E0FEF7FBFF024663
:10433800BB6AD31A022B02D9032300F016BC8F4B99
:104348009B6A03F00103002BEFD07B685B69002BAD
:104358005FD0894BD3F8F0303B627B689A693B6A3F
:1043680003F080539A4237D03B6A03F00063002B76
:1043780006D03B6A03F08063002B01D10123F4E3EC
:104388003B6A03F08063002B1BD07B4BD3F8F030E3
:10439800794A23F0A053C2F8F030FEF7C3FFB862A1
:1043A80008E0FEF7BFFF0246BB6AD31A052B01D906
:1043B8000323DAE3704BD3F8F03003F00063002BEB
:1043C800EFD16D4BD3F8F03023F080527B689B69B6
:1043D80069491343C1F8F030674BD3F8F030664AA7
:1043E80043F08063C2F8F030FEF79CFFB86208E043
:1043F800FEF798FF0246BB6AD31A052B01D903239F
:10440800B3E35D4BD3F8F03003F00063002BEFD03B
:104418001BE0594BD3F8F030574A23F0A053C2F8A9
:10442800F030FEF77FFFB86208E0FEF77BFF024638
:10443800BB6AD31A052B01D9032396E34E4BD3F855
:10444800F03003F00063002BEFD197F83630012BE2
:1044580007D1494BD3F89430474A23F00403C2F8F4
:1044680094307B681B6803F00403002B00F0118173
:10447800002387F83530404BD3F8943003F0040319
:10448800002B11D13C4BD3F894303B4A43F0040342
:10449800C2F89430384BD3F8943003F004033B61EE
:1044A8003B69012387F83530344B9B6A03F00103DD
:1044B800002B18D1314B9B6A304A43F001039362B9
:1044C800FEF730FFB86208E0FEF72CFF0246BB6A31
:1044D800D31A022B01D9032347E3284B9B6A03F025
:1044E8000103002BF0D07B689B6803F00103002BCD
:1044F8001FD07B689B6803F00403002B10D01E4B71
:10450800D3F8F0301C4A43F00403C2F8F0301A4BD9
:10451800D3F8F030184A43F00103C2F8F03018E03D
:10452800154BD3F8F030144A43F00103C2F8F030C9
:104538000FE0114BD3F8F0300F4A23F00103C2F813
:10454800F0300D4BD3F8F0300B4A23F00403C2F8D7
:10455800F0307B689B68002B57D0FEF7E3FEB8620B
:104568000EE0FEF7DFFE0246BB6AD31A41F288323C
:10457800934205D90323F8E2000C024600080246DC
:104588009C4BD3F8F03003F00203002BE9D07B6892
:104598009B6803F08003002B1BD0964BD3F8F030B8
:1045A800944A43F08003C2F8F0300AE0FEF7BAFEFE
:1045B8000246BB6AD31A41F28832934201D90323D7
:1045C800D3E28C4BD3F8F03003F40063002BEDD02A
:1045D80053E0884BD3F8F030864A23F08003C2F8C2
:1045E800F0300AE0FEF79EFE0246BB6AD31A41F29B
:1045F8008832934201D90323B7E27E4BD3F8F030D7
:1046080003F40063002BEDD137E0FEF78BFEB862B0
:104618000AE0FEF787FE0246BB6AD31A41F28832E7
:10462800934201D90323A0E2724BD3F8F03003F090
:104638000203002BEDD16F4BD3F8F03003F0800369
:10464800002B1AD06B4BD3F8F0306A4A23F0800362
:10465800C2F8F0300AE0FEF765FE0246BB6AD31ADC
:1046680041F28832934201D903237EE2614BD3F8A9
:10467800F03003F40063002BEDD197F83530012BAF
:1046880007D15C4BD3F894305A4A23F00403C2F89C
:1046980094307B681B6803F02003002B36D07B68BE
:1046A800DB6A002B19D0534B1B68524A43F48053E2
:1046B8001360FEF737FEB86208E0FEF733FE0246E5
:1046C800BB6AD31A022B01D903234EE2494B1B685C
:1046D80003F40053002BF0D018E0464B1B68454A02
:1046E80023F480531360FEF71DFEB86208E0FEF75E
:1046F80019FE0246BB6AD31A022B01D9032334E2FE
:104708003C4B1B6803F40053002BF0D17B681B68FB
:1047180003F08003002B36D07B681B6B002B19D06D
:10472800344B1B68334A43F480431360FEF7FAFDA9
:10473800B86208E0FEF7F6FD0246BB6AD31A022B00
:1047480001D9032311E22B4B1B6803F40043002B10
:10475800F0D018E0274B1B68264A23F480431360E7
:10476800FEF7E0FDB86208E0FEF7DCFD0246BB6A32
:10477800D31A022B01D90323F7E11E4B1B6803F45C
:104788000043002BF0D17B681B6803F04003002B2B
:104798007FD07B685B6B002B62D0164B9B68154AF9
:1047A80043F400039360134B9B6823F070627B68AB
:1047B8009B6A104913438B607B685B6AB3F1404F77
:1047C80009D30C4BDB6823F01F027B681B6A09497D
:1047D8001343CB602AE07B685B6A002B0CDA054B3D
:1047E800DB6823F478727B681B6A5B010149134319
:1047F800CB601BE0000C02467B685B6AB3F1804F1C
:104808000AD3A14BDB6823F4F8427B681B6A9B023E
:104818009D491343CB6009E09B4BDB6823F4782266
:104828007B681B6ADB0398491343CB60964B1B6874
:10483800954A43F010031360FEF774FDB86208E070
:10484800FEF770FD0246BB6AD31A022B01D9032377
:104858008BE18D4B1B6803F02003002BF0D018E090
:10486800894B1B68884A23F010031360FEF75AFD32
:10487800B86208E0FEF756FD0246BB6AD31A022B5F
:1048880001D9032371E1804B1B6803F02003002B3F
:10489800F0D17B689B6B002B00F06681002387F8C2
:1048A8003430794BDB6903F00C030C2B00F0F280F9
:1048B8007B689B6B022B40F0C580734B1B68724A68
:1048C80023F080731360FEF72DFDB86208E0FEF751
:1048D80029FD0246BB6AD31A022B01D9032344E1FE
:1048E800694B1B6803F00073002BF0D1664BD3F8BB
:1048F800943003F00403002B11D1634BD3F89430A8
:10490800614A43F00403C2F894305F4BD3F8943003
:1049180003F00403FB60FB68012387F834305B4B2A
:10492800DB6803F48023B3F5802F02D1012387F8D5
:104938003730564BDB68554A23F48023D360524BFB
:104948009B6A23F47F4323F003037A68D16B7A6868
:10495800126C013A120211437A68526C0A434A49AE
:1049680013438B62484B5A6B494B13407A68926CDD
:10497800013AC2F308017A68D26C013A520292B243
:1049880011437A68126D013A120402F4FE021143CF
:104998007A68526D013A120602F0FE420A433A4919
:1049A80013434B63384B9B6A374A23F010039362D7
:1049B8007B68DB6D344ADB009363334B9B6A324A76
:1049C80043F010039362304B9B6A23F00C027B6820
:1049D8009B6D2D4913438B6297F83730012B05D116
:1049E8002A4BDB68294A43F48023D36097F8343094
:1049F800012B07D1244BD3F89430234A23F0040326
:104A0800C2F89430204B1B681F4A43F08073136030
:104A1800FEF788FCB86208E0FEF784FC0246BB6A31
:104A2800D31A022B01D903239FE0174B1B6803F00D
:104A38000073002BF0D0144B9B6A134A43F4802375
:104A4800936291E0104B1B680F4A23F08073136048
:104A5800FEF768FCB86208E0FEF764FC0246BB6A31
:104A6800D31A022B01D903237FE0074B1B6803F0FD
:104A78000073002BF0D1044B9B6A034A23F4E02314
:104A880023F0030393626FE0000C0246000802461D
:104A980000008080374B9B6AFB61364B5B6BBB61C8
:104AA8007B689B6B012B39D0FB6903F003027B68A1
:104AB800DB6B9A4232D1FB691B0A03F00F027B6859
:104AC8001B6C013B9A4229D1FB6903F470427B6855
:104AD8005B6C9A4222D1BB69C3F308027B689B6C6A
:104AE800013B9A421AD1BB695B0A03F07F027B68DB
:104AF800DB6C013B9A4211D1BB691B0C03F07F02AE
:104B08007B681B6D013B9A4208D1BB691B0E03F001
:104B18007F027B685B6D013B9A4201D0012324E050
:104B2800144B9B6BDB08C3F30C027B68DB6D9A426A
:104B38001AD0104B9B6A0F4A23F010039362FEF7BA
:104B4800F1FBB86200BFFEF7EDFB0246BB6A934279
:104B5800F9D07B68DB6D074ADB009363054B9B6AE2
:104B6800044A43F010039362002318463837BD46C1
:104B780080BD00BF000C024680B586B000AF7860EB
:104B880039607B68002B01D10123D9E19B4B1B685D
:104B980003F00F033A689A4210D9984B1B6823F028
:104BA8000F0296493B6813430B60944B1B6803F054
:104BB8000F033A689A4201D00123C1E17B681B6860
:104BC80003F01003002B10D07B685A698C4B5B6A8A
:104BD80003F070039A4208D9894B5B6A23F070028C
:104BE8007B685B69864913434B627B681B6803F0EB
:104BF8000803002B12D07B681A69814B1B6A1B09BA
:104C080003F070039A4209D97D4B1B6A23F4E062D2
:104C18007B681B691B017A4913430B627B681B681D
:104C280003F00403002B10D07B68DA68744B1B6A0E
:104C380003F070039A4208D9714B1B6A23F0700283
:104C48007B68DB686E4913430B627B681B6803F063
:104C58000203002B10D07B689A68694B1B6A03F02B
:104C68000F039A4208D9664B1B6A23F00F027B6830
:104C78009B68634913430B627B681B6803F001035D
:104C8800002B00F0D2800023FB757B685B68032B48
:104C980043D15B4BD3F8943003F00403002B10D1BD
:104CA800574BD3F89430564A43F00403C2F8943073
:104CB800534BD3F8943003F00403BB60BB68012363
:104CC800FB75FEF72FFB38614E4BDB6803F480233E
:104CD800002B0FD008E0FEF725FB02463B69D31AEC
:104CE800022B01D903232BE1464BDB6803F48043F5
:104CF800002BF0D0FB7D012B07D1414BD3F894302A
:104D08003F4A23F00403C2F894303D4B1B6803F07C
:104D18000073002B21D1012312E17B685B68022B11
:104D280007D1374B1B6803F40033002B15D101233F
:104D380006E17B685B68002B07D1314B1B6803F0E9
:104D48000403002B09D10123FAE02D4B1B6803F45F
:104D58008063002B01D10123F2E0294BDB6923F0AA
:104D680003027B685B6826491343CB61FEF7DAFAD6
:104D780038617B685B68032B12D10AE0FEF7D2FA30
:104D880002463B69D31A41F28832934201D9032380
:104D9800D6E01B4BDB6903F00C030C2BEED144E08F
:104DA8007B685B68022B12D10AE0FEF7BBFA024669
:104DB8003B69D31A41F28832934201D90323BFE0F9
:104DC8000F4BDB6903F00C03082BEED12DE07B6859
:104DD8005B68002B23D10AE0FEF7A4FA02463B6980
:104DE800D31A41F28832934201D90323A8E0044B35
:104DF800DB6903F00C03002BEED116E00020024023
:104E0800000C024600080246FEF78CFA02463B698F
:104E1800D31A41F28832934201D9032390E04A4BD6
:104E2800DB6903F00C03042BEED17B681B6803F0ED
:104E38000203002B10D07B689A68434B1B6A03F06F
:104E48000F039A4208D2404B1B6A23F00F027B687B
:104E58009B683D4913430B623C4B1B6803F00F03EF
:104E68003A689A4210D2394B1B6823F00F0237492F
:104E78003B6813430B60354B1B6803F00F033A681C
:104E88009A4201D001235BE07B681B6803F00403AE
:104E9800002B10D07B68DA682B4B1B6A03F0700379
:104EA8009A4208D2284B1B6A23F070027B68DB68A1
:104EB800254913430B627B681B6803F00803002B2A
:104EC80012D07B681A69204B1B6A1B0903F0700318
:104ED8009A4209D21C4B1B6A23F4E0627B681B6967
:104EE8001B01194913430B627B681B6803F010030D
:104EF800002B10D07B685A69134B5B6A03F0700370
:104F08009A4208D2104B5B6A23F070027B685B6997
:104F18000D4913434B6200F021F802460A4B1B6A05
:104F280003F00F030A49CB5C22FA03F3094A136022
:104F3800094B1B681846FEF76BF90346FB73FB7BAE
:104F480018461837BD4680BD000C024600200240B6
:104F5800E0E00008040000200800002080B48BB0C6
:104F680000AF00237B6200233B62784BDB6903F0D0
:104F78000C03BB61754B9B6A03F003037B61BB6940
:104F8800002B05D0BB690C2B21D17B69012B1ED1CD
:104F98006E4B9B6803F40003002B07D16B4BD3F8CF
:104FA800F4301B0B03F00F037B6205E0674B9B6833
:104FB8001B0F03F00F037B62654A7B6A52F82330AC
:104FC8007B62BB69002B10D17B6A3B620DE05F4BB3
:104FD800DB6903F00C03042B02D15E4B3B6204E057
:104FE800BB69082B01D15B4B3B62BB690C2B40F0C2
:104FF800A580564B9B6A03F003033B61534B9B6AA6
:105008001B0A03F00F030133FB60504B9B6A1B091B
:1050180003F00103BB604D4B9B6BDB08C3F30C0330
:10502800BA6802FB03F307EE903AF8EE677AC7ED29
:10503800017A3B69022B03D03B69032B22D043E062
:10504800FB6807EE903AF8EE677ADFED436A86EE82
:10505800A77A3E4B5B6BC3F3080307EE903AF8EE72
:10506800676A97ED016ADFED3D5AC6EE257A76EE5E
:10507800A77AF7EE006A77EEA67A67EE277AC7ED89
:10508800077A46E0FB6807EE903AF8EE677ADFEDBC
:10509800326A86EEA77A2D4B5B6BC3F3080307EEE3
:1050A800903AF8EE676A97ED016ADFED2C5AC6EE82
:1050B800257A76EEA77AF7EE006A77EEA67A67EE9B
:1050C800277AC7ED077A24E07B6A07EE903AF8EE74
:1050D800676AFB6807EE903AF8EE677A86EEA77A79
:1050E8001A4B5B6BC3F3080307EE903AF8EE676A56
:1050F80097ED016ADFED195AC6EE257A76EEA77AA2
:10510800F7EE006A77EEA67A67EE277AC7ED077A98
:1051180000BF0E4B5B6B1B0E03F07F0301333B603C
:105128003B6807EE903AB8EE677AD7ED076AC6EEA5
:10513800877AFCEEE77A17EE903A3B623B6A1846AC
:105148002C37BD465DF8047B704700BF000C024653
:10515800F8E000080024F4000024744B0000004626
:1051680080B500AFFFF7FAFE0246074B1B6A03F053
:105178000F030649CB5C22FA03F3054A1360044B7C
:105188001B68184680BD00BF000C0246E0E000081E
:105198000400002080B500AFFFF7E2FF0246054B90
:1051A8001B6A1B0903F007030349CB5C22FA03F3CC
:1051B800184680BD000C0246F0E0000880B500AF3C
:1051C800FFF7CEFF0246054B1B6A1B0A03F00703D5
:1051D8000349CB5C22FA03F3184680BD000C024653
:1051E800F0E0000880B500AFFFF7BAFF0246054BB4
:1051F8005B6A1B0903F007030349CB5C22FA03F33C
:10520800184680BD000C0246F0E0000880B586B064
:1052180000AF78603E4BD3F8943003F00403002BC2
:1052280003D0FEF7BFFD786119E0394BD3F894300D
:10523800374A43F00403C2F89430354BD3F894301E
:1052480003F00403FB60FB68FEF7ACFD7861304BAC
:10525800D3F894302E4A23F00403C2F894307B69C3
:10526800B3F5403F03D07B69B3F5003F09D17B68B4
:10527800B3F1805F02D201233B6133E000233B613D
:1052880030E07B68B3F1805F08D27B69B3F5803F7B
:1052980002D103233B6125E0012335E07B68B3F1AC
:1052A800005F0FD97B69002B09D17B68B3F1405FA0
:1052B80002D900233B6115E001233B6112E0002382
:1052C8003B610FE07B68B3F1805F09D17B69B3F57F
:1052D800803F02D101233B6104E002233B6101E0EE
:1052E80001233B610B4B1B6823F00F0209493B6903
:1052F80013430B60074B1B6803F00F033A699A428C
:1053080001D0012300E0002318461837BD4680BDB0
:10531800000C0246002002402DE9B04FB6B000AFA5
:10532800C7F8C400002387F8D330002387F8D230A9
:10533800D7F8C430D3E9002302F00104002554EA69
:1053480005030BD0C54BD3F8E03023F00301D7F8A1
:10535800C4301B6DC14A0B43C2F8E030D7F8C430E3
:10536800D3E9002302F004084FF0000958EA0903C2
:105378000BD0BA4BD3F8E03023F03001D7F8C43063
:105388005B6DB64A0B43C2F8E030D7F8C430D3E9B6
:10539800002302F0080A4FF0000B5AEA0B030BD067
:1053A800AE4BD3F8E03023F0C001D7F8C4309B6D82
:1053B800AA4A0B43C2F8E030D7F8C430D3E9002337
:1053C80002F01003C7F8B8300023C7F8BC30D7E99B
:1053D8002E120B4613430BD0A04BD3F8E03023F426
:1053E8004071D7F8C430DB6D9C4A0B43C2F8E030FB
:1053F800D7F8C430D3E9002302F02003C7F8B0304F
:105408000023C7F8B430D7E92C120B4613430BD04E
:10541800924BD3F8E83023F00701D7F8C4301B6E5D
:105428008E4A0B43C2F8E830D7F8C430D3E90023DA
:1054380002F04003C7F8A8300023C7F8AC30D7E91A
:105448002A120B4613430BD0844BD3F8E03023F4D5
:105458004061D7F8C4305B6E804A0B43C2F8E03035
:10546800D7F8C430D3E9002302F08003C7F8A0308E
:105478000023C7F8A430D7E928120B4613430BD0F2
:10548800764BD3F8E03023F44051D7F8C4309B6E04
:10549800724A0B43C2F8E030D7F8C430D3E900238E
:1054A80002F48073C7F898300023C7F89C30D7E916
:1054B80026120B4613430BD0684BD3F8E83023F081
:1054C800C001D7F8C430DB6E644A0B43C2F8E83039
:1054D800D7F8C430D3E9002302F48003C7F890302A
:1054E8000023C7F89430D7E924120B4613430BD096
:1054F8005A4BD3F8E03023F44041D7F8C4301B6F3F
:10550800564A0B43C2F8E030D7F8C430D3E9002339
:1055180002F40073C7F888300023C7F88C30D7E945
:1055280022120B4613430BD04C4BD3F8E83023F42C
:105538004061D7F8C4305B6F484A0B43C2F8E83083
:10554800D7F8C430D3E9002302F48063C7F8803069
:105558000023C7F88430D7E920120B4613430BD039
:105568003E4BD3F8E03023F44021D7F8C4309B6F8A
:105578003A4A0B43C2F8E030D7F8C430D3E90023E5
:1055880002F40063BB670023FB67D7E91E120B46D2
:1055980013430BD0314BD3F8E83023F44071D7F8DC
:1055A800C430DB6F2D4A0B43C2F8E830D7F8C4305B
:1055B800D3E9002302F400533B6700237B67D7E954
:1055C8001C120B4613434FD0D7F8C430D3F88C3095
:1055D800802B2DD0802B27D8602B2BD0602B23D865
:1055E800402B06D0402B1FD8002B09D0202B11D0E0
:1055F8001AE01A4B9B6A194A43F4803393621AE003
:10560800D7F8C4300833184602F014F9034687F86F
:10561800D33010E0D7F8C4302C33184602F0A2F982
:10562800034687F8D33006E0012387F8D33002E039
:1056380000BF00E000BF97F8D330002B10D1074B14
:10564800D3F8E43023F0E001D7F8C430D3F88C3035
:10565800024A0B43C2F8E43006E000BF000C0246E1
:1056680097F8D33087F8D230D7F8C430D3E900237D
:1056780002F40043BB660023FB66D7E91A120B4607
:10568800134346D0D7F8C430D3F8A030B3F5A04FB1
:1056980028D0B3F5A04F21D8B3F5804F22D0B3F569
:1056A800804F1BD8B3F5405F1CD0B3F5405F15D8C9
:1056B800B3F5005F08D0B3F5005F0FD8002B11D009
:1056C800B3F5805F0ED009E0D7F8C4300833184628
:1056D80002F0B0F8034687F8D33004E0012387F8D6
:1056E800D33000E000BF97F8D330002B0DD1B64B74
:1056F800D3F8E83023F4E041D7F8C430D3F8A03029
:10570800B14A0B43C2F8E83003E097F8D33087F882
:10571800D230D7F8C430D3E9002302F480333B6693
:1057280000237B66D7E918120B4613433ED0D7F8FF
:10573800C430D3F88430042B1DD801A252F823F0CA
:10574800875700085D5700086B57000887570008FF
:10575800875700089C4B9B6A9B4A43F480339362AB
:105768000EE0D7F8C4302C33184602F0FBF8034695
:1057780087F8D33004E0012387F8D33000E000BF76
:1057880097F8D330002B0DD18F4BD3F8E43023F0AA
:105798000701D7F8C430D3F884308B4A0B43C2F8DA
:1057A800E43003E097F8D33087F8D230D7F8C43024
:1057B800D3E9002302F40033BB650023FB65D7E976
:1057C80016120B4613434AD0D7F8C430D3F88830A2
:1057D800B3F5802F28D0B3F5802F21D8B3F5403FFB
:1057E80024D0B3F5403F1BD8B3F5003F0ED0B3F536
:1057F800003F15D8002B1BD0B3F5803F10D1724B5A
:105808009B6A714A43F48033936212E0D7F8C4303C
:105818002C33184602F0A6F8034687F8D33008E080
:10582800012387F8D33004E000BF02E000BF00E0A6
:1058380000BF97F8D330002B0DD1634BD3F8E83075
:1058480023F4E021D7F8C430D3F888305E4A0B43FC
:10585800C2F8E83003E097F8D33087F8D230D7F8A9
:10586800C430D3E9002302F480233B6500237B6521
:10587800D7E914120B46134300F0BA80002387F8C7
:10588800D130514BD3F8943003F00403002B13D1DB
:105898004D4BD3F894304C4A43F00403C2F894308B
:1058A800494BD3F8943003F00403C7F8C830D7F84D
:1058B800C830012387F8D130444B9B6A434A43F0F0
:1058C80001039362FDF72EFDC7F8CC000BE0FDF74E
:1058D80029FD0246D7F8CC30D31A022B03D903236B
:1058E80087F8D33005E0394B9B6A03F00103002B9E
:1058F800EDD097F8D330002B6AD1334BD3F8F03082
:1059080003F44073C7F8D430D7F8D430002B23D031
:10591800D7F8C430D3F8B820D7F8D43093421BD086
:10592800294BD3F8F03023F44073C7F8D430264B12
:10593800D3F8F030244A43F48033C2F8F030224BD5
:10594800D3F8F030204A23F48033C2F8F0301E4AEE
:10595800D7F8D430C2F8F030D7F8D43003F00103C8
:10596800002B19D0FDF7DEFCC7F8CC000DE0FDF7E1
:10597800D9FC0246D7F8CC30D21A41F288339A4281
:1059880003D9032387F8D33006E00F4BD3F8F03060
:1059980003F00203002BEAD097F8D330002B0DD187
:1059A800094BD3F8F03023F44071D7F8C430D3F85A
:1059B800B830054A0B43C2F8F0300DE097F8D33001
:1059C80087F8D23008E000BF000C02460008024603
:1059D80097F8D33087F8D23097F8D130012B07D118
:1059E800B24BD3F89430B14A23F00403C2F8943090
:1059F800D7F8C430D3E9002302F48013BB64002332
:105A0800FB64D7E912120B46134342D0D7F8C430CF
:105A1800D3F89830B3F1406F22D0B3F1406F1BD860
:105A2800B3F1006F11D0B3F1006F15D8002B19D066
:105A3800B3F1806F10D1D7F8C4300833184601F09D
:105A4800F9FE034687F8D3300DE0984B9B6A974AD6
:105A580043F40033936206E0012387F8D33002E071
:105A680000BF00E000BF97F8D330002B0DD18F4B5B
:105A7800D3F8E03023F04061D7F8C430D3F8983039
:105A88008A4A0B43C2F8E03003E097F8D33087F82E
:105A9800D230D7F8C430D3E9002302F400233B64A2
:105AA80000237B64D7E910120B4613432DD0D7F897
:105AB800C430D3F89030B3F5005F0BD0B3F5005F76
:105AC80004D8002B08D0B3F5805F07D0012387F8EE
