:020000040800F2
:1000000000000420CD2A0008AD250008B525000811
:10001000BD250008C5250008CD2500081D2B0008BA
:10002000000000000000000000000000D5250008CE
:10003000E325000800000000F1250008FF25000866
:100040001D2B00081D2B00081D2B00081D2B000870
:100050001D2B00081D2B00081D2B00081D2B000860
:100060001D2B00081D2B00081D2B00081D2B000850
:100070001D2B00081D2B00081D2B00081D2B000840
:100080001D2B00081D2B00081D2B00081D2B000830
:100090001D2B00081D2B00081D2B00081D2B000820
:1000A0001D2B00081D2B00081D2B00081D2B000810
:1000B0001D2B00081D2B00081D2B00081D2B000800
:1000C0001D2B00081D2B00081D2B00081D2B0008F0
:1000D0001D2B00081D2B00081D2B00081D2B0008E0
:1000E0001D2B00081D2B00081D2B00081D2B0008D0
:1000F0001D2B00081D2B00081D2B00081D2B0008C0
:100100001D2B00081D2B00081D2B00081D2B0008AF
:100110001D2B00081D2B00081D2B00081D2B00089F
:100120001D2B00081D2B00081D2B00081D2B00088F
:100130001D2B00081D2B0008000000001D2B0008CF
:100140001D2B00081D2B00081D2B00081D2B00086F
:100150001D2B00081D2B00081D2B00081D2B00085F
:100160001D2B00081D2B00081D2B0008000000009F
:100170001D2B00081D2B00081D2B0008000000008F
:100180001D2B00081D2B00081D2B00081D2B00082F
:100190001D2B00081D2B00081D2B00081D2B00081F
:1001A0001D2B00081D2B00081D2B0008000000005F
:1001B0001D2B00081D2B00081D2B00081D2B0008FF
:1001C0001D2B00081D2B00081D2B00081D2B0008EF
:1001D0001D2B00081D2B00081D2B00081D2B0008DF
:1001E0000000000000000000000000001D2B0008BF
:1001F0001D2B0008000000001D2B00081D2B00080F
:100200001D2B00081D2B00081D2B00081D2B0008AE
:100210001D2B00081D2B0008000000001D2B0008EE
:100220000000000000000000000000001D2B00087E
:080230001D2B00081D2B000826
:1002380010B5054C237833B9044B13B10448AFF318
:1002480000800123237010BDE001002000000000A1
:10025800D8F6000808B5034B1BB103490348AFF3B0
:10026800008008BD00000000E4010020D8F6000866
:10027800034613F8012B002AFBD1181A01387047DE
:1002880081F0004102E000BF83F0004330B54FEA3F
:1002980041044FEA430594EA050F08BF90EA020FAC
:1002A8001FBF54EA000C55EA020C7FEA645C7FEA3F
:1002B800655C00F0E2804FEA5454D4EB5555B8BF62
:1002C8006D420CDD2C4480EA020281EA030382EAD3
:1002D800000083EA010180EA020281EA0303362D65
:1002E80088BF30BD11F0004F4FEA01314FF4801C38
:1002F8004CEA113102D0404261EB410113F0004F4A
:100308004FEA03334CEA133302D0524263EB430300
:1003180094EA050F00F0A780A4F10104D5F1200E9E
:100328000DDB02FA0EFC22FA05F2801841F10001F9
:1003380003FA0EF2801843FA05F359410EE0A5F1CD
:1003480020050EF1200E012A03FA0EFC28BF4CF0FE
:10035800020C43FA05F3C01851EBE37101F00045B4
:1003680007D54FF0000EDCF1000C7EEB00006EEBC1
:100378000101B1F5801F1BD3B1F5001F0CD349084B
:100388005FEA30004FEA3C0C04F101044FEA4452A2
:1003980012F5800F80F09A80BCF1004F08BF5FEA29
:1003A800500C50F1000041EB045141EA050130BD09
:1003B8005FEA4C0C404141EB0101013C28BFB1F51B
:1003C800801FE9D291F0000F04BF01460020B1FA66
:1003D80081F308BF2033A3F10B03B3F120020CDA39
:1003E8000C3208DD02F1140CC2F10C0201FA0CF017
:1003F80021FA02F10CE002F11402D8BFC2F1200C7C
:1004080001FA02F120FA0CFCDCBF41EA0C01904031
:10041800E41AA2BF01EB0451294330BD6FEA04047A
:100428001F3C1CDA0C340EDC04F11404C4F1200265
:1004380020FA04F001FA02F340EA030021FA04F377
:1004480045EA030130BDC4F10C04C4F1200220FACE
:1004580002F001FA04F340EA0300294630BD21FA0C
:1004680004F0294630BD94F0000F83F4801306BFD2
:1004780081F480110134013D4EE77FEA645C18BFC6
:100488007FEA655C29D094EA050F08BF90EA020F5D
:1004980005D054EA000C04BF1946104630BD91EA55
:1004A800030F1EBF0021002030BD5FEA545C05D158
:1004B8004000494128BF41F0004130BD14F5800497
:1004C8003CBF01F5801130BD01F0004545F0FE410B
:1004D80041F470014FF0000030BD7FEA645C1ABF40
:1004E800194610467FEA655C1CBF0B46024650EA77
:1004F800013406BF52EA033591EA030F41F40021A3
:1005080030BD00BF90F0000F04BF0021704730B528
:100518004FF4806404F132044FF000054FF00001FD
:1005280050E700BF90F0000F04BF0021704730B5BE
:100538004FF4806404F1320410F0004548BF404293
:100548004FF000013EE700BF42004FEAE2014FEAE8
:1005580031014FEA02701FBF12F07F4393F07F4FC3
:1005680081F06051704732F07F4208BF704793F0C6
:100578007F4F04BF41F40021704730B54FF46074D9
:1005880001F0004521F000411CE700BF50EA0102DC
:1005980008BF704730B54FF000050AE050EA010285
:1005A80008BF704730B511F0004502D5404261EBF5
:1005B80041014FF4806404F132045FEA915C3FF436
:1005C800D8AE4FF003025FEADC0C18BF03325FEAD3
:1005D800DC0C18BF033202EBDC02C2F1200300FA84
:1005E80003FC20FA02F001FA03FE40EA0E0021FAA9
:1005F80002F11444BDE600BF70B54FF0FF0C4CF497
:10060800E06C1CEA11541DBF1CEA135594EA0C0F48
:1006180095EA0C0F00F0DEF82C4481EA030621EA83
:100628004C5123EA4C5350EA013518BF52EA0335BE
:1006380041F4801143F4801338D0A0FB02CE4FF070
:100648000005E1FB02E506F00042E0FB03E54FF0A0
:100658000006E1FB03569CF0000F18BF4EF0010E98
:10066800A4F1FF04B6F5007F64F5407404D25FEA94
:100678004E0E6D4146EB060642EAC62141EA555147
:100688004FEAC52040EA5E504FEACE2EB4F1FD0C89
:1006980088BFBCF5E06F1ED8BEF1004F08BF5FEA07
:1006A800500E50F1000041EB045170BD06F00046B9
:1006B80046EA010140EA020081EA0301B4EB5C0466
:1006C800C2BFD4EB0C0541EA045170BD41F480115E
:1006D8004FF0000E013C00F3AB8014F1360FDEBF83
:1006E800002001F0004170BDC4F10004203C35DA5F
:1006F8000C341BDC04F11404C4F1200500FA05F3E2
:1007080020FA04F001FA05F240EA020001F0004282
:1007180021F0004110EBD37021FA04F642EB0601F8
:100728005EEA430E08BF20EAD37070BDC4F10C0422
:10073800C4F1200500FA04F320FA05F001FA04F2E6
:1007480040EA020001F0004110EBD37041F10001D2
:100758005EEA430E08BF20EAD37070BDC4F12005DD
:1007680000FA05F24EEA020E20FA04F301FA05F245
:1007780043EA020321FA04F001F0004121FA04F2ED
:1007880020EA020000EBD3705EEA430E08BF20EABD
:10079800D37070BD94F0000F0FD101F000464000F7
:1007A80041EB010111F4801F08BF013CF7D041EA79
:1007B800060195F0000F18BF704703F0004652007D
:1007C80043EB030313F4801F08BF013DF7D043EA4E
:1007D8000603704794EA0C0F0CEA135518BF95EA04
:1007E8000C0F0CD050EA410618BF52EA4306D1D18B
:1007F80081EA030101F000414FF0000070BD50EAAA
:10080800410606BF1046194652EA430619D094EA33
:100818000C0F02D150EA013613D195EA0C0F05D11D
:1008280052EA03361CBF104619460AD181EA030171
:1008380001F0004141F0FE4141F470014FF0000029
:1008480070BD41F0FE4141F4780170BD70B54FF0C4
:10085800FF0C4CF4E06C1CEA11541DBF1CEA135544
:1008680094EA0C0F95EA0C0F00F0A7F8A4EB050426
:1008780081EA030E52EA03354FEA013100F088801D
:100888004FEA03334FF0805545EA131343EA1263E6
:100898004FEA022245EA111545EA10654FEA00269B
:1008A8000EF000419D4208BF964244F1FD0404F554
:1008B800407402D25B084FEA3202B61A65EB0305B0
:1008C8005B084FEA32024FF480104FF4002CB6EB6D
:1008D800020E75EB030E22BFB61A754640EA0C00ED
:1008E8005B084FEA3202B6EB020E75EB030E22BF2D
:1008F800B61A754640EA5C005B084FEA3202B6EB6E
:10090800020E75EB030E22BFB61A754640EA9C002C
:100918005B084FEA3202B6EB020E75EB030E22BFFC
:10092800B61A754640EADC0055EA060E18D04FEABA
:10093800051545EA16754FEA06164FEAC30343EA5A
:1009480052734FEAC2025FEA1C1CC0D111F4801F27
:100958000BD141EA00014FF000004FF0004CB6E720
:1009680011F4801F04BF01430020B4F1FD0C88BFBF
:10097800BCF5E06F3FF6AFAEB5EB030C04BFB6EBCA
:10098800020C5FEA500C50F1000041EB045170BDBD
:100998000EF0004E4EEA113114EB5C04C2BFD4EBEA
:1009A8000C0541EA045170BD41F480114FF0000E6E
:1009B800013C90E645EA060E8DE60CEA135594EAEA
:1009C8000C0F08BF95EA0C0F3FF43BAF94EA0C0FED
:1009D8000AD150EA01347FF434AF95EA0C0F7FF462
:1009E80025AF104619462CE795EA0C0F06D152EAB6
:1009F80003353FF4FDAE1046194622E750EA41069A
:100A080018BF52EA43067FF4C5AE50EA41047FF4AA
:100A18000DAF52EA43057FF4EBAE12E74FF0FF3C0F
:100A280006E000BF4FF0010C02E000BF4FF0010CE0
:100A38004DF804CD4FEA410C7FEA6C5C4FEA430C59
:100A480018BF7FEA6C5C1BD001B050EA410C0CBFA8
:100A580052EA430C91EA030F02BF90EA020F00200A
:100A6800704710F1000F91EA030F58BF994208BF71
:100A780090422CBFD8176FEAE37040F0010070472E
:100A88004FEA410C7FEA6C5C02D150EA013C07D185
:100A98004FEA430C7FEA6C5CD6D152EA033CD3D0D0
:100AA8005DF8040B704700BF8446104662468C46CA
:100AB8001946634600E000BF01B5FFF7B7FF0028FD
:100AC80048BF10F1000F01BD4DF808EDFFF7F4FF26
:100AD8000CBF012000205DF808FB00BF4DF808EDB1
:100AE800FFF7EAFF34BF012000205DF808FB00BFD4
:100AF8004DF808EDFFF7E0FF94BF012000205DF8F6
:100B080008FB00BF4DF808EDFFF7CEFF94BF0120AA
:100B180000205DF808FB00BF4DF808EDFFF7C4FFA3
:100B280034BF012000205DF808FB00BF4FEA410CEC
:100B38007FEA6C5C02D150EA013C0AD14FEA430CCF
:100B48007FEA6C5C02D152EA033C02D14FF000000C
:100B580070474FF0010070474FEA410212F500124A
:100B680015D211D56FF47873B3EB625212D94FEAEC
:100B7800C12343F0004343EA505311F0004F23FAD6
:100B880002F018BF404270474FF00000704750EA2B
:100B9800013005D111F0004008BF6FF000407047E8
:100BA8004FF00000704700BF4A0011D212F5001242
:100BB80011D20DD56FF47873B3EB62520ED44FEAAD
:100BC800C12343F0004343EA505323FA02F070472D
:100BD8004FF00000704750EA013002D14FF0FF306B
:100BE80070474FF0000070474FEA4102B2F1E0430E
:100BF80024BFB3F5001CDCF1FE5C0DD901F0004CFC
:100C08004FEAC0024CEA5070B2F1004F40EB83004B
:100C180008BF20F00100704711F0804F21D113F177
:100C28003872BCBF01F00040704741F480114FEAB0
:100C38005252C2F11802C2F1200C10FA0CF320FA39
:100C480002F018BF40F001004FEAC1234FEAD32356
:100C580003FA0CFC40EA0C0023FA02F34FEA4303C0
:100C6800CCE77FEA625307D150EA01331EBF4FF049
:100C7800FE4040F44000704701F0004040F0FE4064
:100C880040F40000704700BF53B94AB9002908BFB3
:100C980000281CBF4FF0FF314FF0FF3000F0B0B913
:100CA800ADF1080C6DE904CE00F006F8DDF804E0BB
:100CB800DDE9022304B070472DE9F04F099D88460D
:100CC80004468E46002B4AD18A4217465FD9B2FAAB
:100CD80082F64EB1C6F1200301FA06FEB740B440D1
:100CE80020FA03F343EA0E0E4FEA17481FFA87FC6F
:100CF800230CBEFBF8F108FB11EE01FB0CF243EAF2
:100D08000E439A4207D9FB1801F1FF3002D29A42EA
:100D180000F2548101469B1AA2B2B3FBF8F008FB1B
:100D2800103300FB0CFC42EA034294450BD9BA1875
:100D380000F1FF332CBF01240024944502D9002C74
:100D480000F03F81184640EA0140A2EB0C02002166
:100D58001DB1F2400023C5E90023BDE8F08F8B42A6
:100D680005D90DB1C5E9000100210846F5E7B3FA38
:100D780083F100294ED14345C0F01281824240F2EE
:100D88000F810846002DE8D0C5E9004EE5E7002AA6
:100D980000F0AC80B2FA82F6002E40F0BB808B1ACD
:100DA8004FEA124EBCB20121020C80B2B3FBFEFC2A
:100DB8000EFB1C3342EA034304FB0CF29A420ED9A1
:100DC800FB180CF1FF382CBF4FF001094FF0000958
:100DD8009A4203D9B9F1000F00F0EC80C4469B1A7F
:100DE800B3FBFEF80EFB183304FB08F440EA034299
:100DF80094420BD9BA1808F1FF332CBF0120002008
:100E0800944202D9002800F0D1809846121B48EA83
:100E18000C409DE7C1F120068B4008FA01F400FA66
:100E280001F922FA06F728FA06F88A401F4320FA41
:100E380006F3380C23431FFA87FC1C0CB8FBF0FEA2
:100E480000FB1E8844EA08440EFB0CF8A0450ED9A6
:100E58003C190EF1FF3A2CBF4FF0010B4FF0000B7D
:100E6800A04503D9BBF1000F00F0B880D646A4EB2B
:100E780008041FFA83F8B4FBF0F300FB134403FBE8
:100E88000CFC48EA0444A4450ED93C1903F1FF3090
:100E98002CBF4FF001084FF00008A44503D9B8F162
:100EA800000F00F09F80034643EA0E40A4EB0C04B9
:100EB800A0FB02EC64457346E04602D307D1F14536
:100EC80005D2BEEB02036CEB070C0138E0465DB1BE
:100ED800B9EB030264EB080404FA06F622FA01F3FC
:100EE800CC401E43C5E90064002136E7B1FBF2FCA3
:100EF800010C144680B2964641EA084120269046E5
:100F080040EA01431046B1FBF2F1A3EB080341EAC2
:100F18000C414BE7B740C6F1200301FA06F221FA6B
:100F280003F84FEA174E20FA03F3BCB2B04013435C
:100F3800020C190C80B2B8FBFEF90EFB198841EAC5
:100F4800084109FB04F8884551D9791809F1FF3C93
:100F58002CBF4FF0010A4FF0000A884502D9BAF1B8
:100F6800000F31D0A1EB0801B1FBFEF909FB04F831
:100F78000EFB19119BB243EA0143434535D2FB18D6
:100F880009F1FF312CBF4FF0010A4FF0000A434529
:100F9800BBD2BAF1000FB8D1A9F102013B44B4E7C2
:100FA800841A68EB030201209646EBE63A44A8F15E
:100FB80002082BE7ACF1020C3B4410E702393B4432
:100FC800A9E63A440238BEE6A7EB0808A9F1020CE4
:100FD8004144B1FBFEF909FB04F8C9E7AEF1020E82
:100FE8003C4444E7023B3C445EE749468DE7A1EBBD
:100FF8000801CC46B1FBFEF909FB04F8B8E700BFCD
:10100800704700BF00000000B0B584B000AF87EDA6
:10101800030AC7ED020A87ED011AC7ED001A44F664
:1010280020631846FFF77EFA41A3D3E90023FFF7B0
:10103800E3FA02460B4614461D46F868FFF784FAA1
:1010480002460B4620462946FFF7D6FA02460B46CB
:1010580039490C6810461946FFF7A6FD0346636335
:1010680044F620631846FFF75DFA31A3D3E900235D
:10107800FFF7C2FA02460B4614461D46B868FFF74A
:1010880063FA02460B4620462946FFF7B5FA0246A0
:101098000B4629490C6810461946FFF785FD03469B
:1010A800A36344F620631846FFF73CFA20A3D3E96C
:1010B8000023FFF7A1FA02460B4614461D4678683E
:1010C800FFF742FA02460B4620462946FFF794FAF4
:1010D80002460B4618490C6810461946FFF764FD8E
:1010E8000346E36344F620631846FFF71BFA10A390
:1010F800D3E90023FFF780FA02460B4614461D4643
:101108003868FFF721FA02460B4620462946FFF7C2
:1011180073FA02460B4608490C6810461946FFF751
:1011280043FD0346236400BF1037BD46B0BD00BF72
:101138007B14AE47E17A843F3805002080B584B03F
:1011480000AF0346FB800023FB730DE007F10F029D
:10115800FB881146184602F013FE03461A46244B34
:101168001A60022002F0F2FEFB7B002BEED0FB8817
:10117800194620480CF06CFBFB88184602F0F4F97D
:1011880003461A461A4B1A60FB880221184602F0D9
:10119800F0FC03461A46164B1A60FB886421184671
:1011A80002F04CFB03461A46114B1A60FB88642177
:1011B800184602F0A5FD03461A460D4B1A60FB8837
:1011C8000021184602F06BFA03461A46084B1A60CB
:1011D80009480CF0A5FBFB88184602F0C6FA03463E
:1011E8001A46034B1A6000BF1037BD4680BD00BFCA
:1011F8008405002034F700085CF7000800000000B0
:10120800B0B5AEB000AF002387F8AF300023A7F821
:10121800AC3002F0D5FD00F0D3F900F023FD00F06A
:1012280057FA00F093FA00F015FA00F0D9FA00F036
:1012380023FB00F08FFB00F0FBFB00F07BFC44F687
:1012480020631846FFF76EF9CFA3D3E90023FFF711
:10125800D3F902460B46D0490C6810461946FFF7E9
:10126800A3FC0346E36344F620631846FFF75AF9E4
:10127800C5A3D3E90023FFF7BFF902460B46C649C9
:101288000C6810461946FFF78FFC034623640821B3
:10129800C14808F087FE0C21BF4808F083FE44F6D9
:1012A80020631846FFF73EF9B9A3D3E90023FFF7F7
:1012B800A3F902460B46B9490C6810461946FFF7D0
:1012C80073FC0346636344F620631846FFF72AF964
:1012D800AFA3D3E90023FFF78FF902460B46AF49C6
:1012E8000C6810461946FFF75FFC0346A36344F6F3
:1012F80020631846FFF716F9A5A3D3E90023FFF7E3
:101308007BF902460B46A5490C6810461946FFF7BB
:101318004BFC0346E36344F620631846FFF702F9E3
:101328009BA3D3E90023FFF767F902460B469B49C5
:101338000C6810461946FFF737FC03462364002162
:10134800964808F02FFE0421944808F02BFE082147
:10135800924808F027FE0C21904808F023FE41F23D
:10136800883002F0F3FD8E4802F060F802F06CF865
:1013780002F072F840F6B83002F0E8FD02F07AF8B0
:10138800C7F8B40007E002F075F8C7F8B40041F2F6
:10139800883002F0DBFDD7F8B430012BF3D14FF0E1
:1013A80000024FF00003C7E918234FF000024FF086
:1013B8000003C7E91A234FF000024FF00003C7E902
:1013C8001C234FF000024FF00003C7E912234FF02F
:1013D80000024FF00003C7E914234FF000024FF05A
:1013E8000003C7E916234FF000024FF00003C7E9D6
:1013F80006234FF000024FF00003C7E908234FF01F
:1014080000024FF00003C7E90A234FF000024FF033
:101418000003C7E900234FF000024FF00003C7E9BB
:1014280002234FF000024FF00003C7E90423002312
:10143800C7F8B03054E001F091FCB0EE405AF0EE3D
:10144800605AB0EE416AF0EE616AB0EE427AF0EEB0
:10145800627A87ED1E5B87ED206B87ED227BD7E9EB
:101468000045D7E91E014FF000024E4BFFF7EEF999
:1014780002460B4620462946FEF708FF02460B4661
:10148800C7E90023D7E90245D7E920014FF0000258
:10149800444BFFF7DBF902460B4620462946FEF788
:1014A800F5FE02460B46C7E90223D7E90445D7E90A
:1014B80022014FF000023B4BFFF7C8F902460B46EA
:1014C80020462946FEF7E2FE02460B46C7E90423FA
:1014D800052002F03BFDD7F8B0300133C7F8B03033
:1014E800D7F8B030042BA6DD4FF00003C7F8A830BA
:1014F8004FF00003C7F8A4304FF00003C7F8A0303E
:101508004FF00003C7F89C3002F014FDC7F89800AC
:1015180002F010FDC7F894000322234923480AF07B
:1015280049F801224021224803F07CF830220121A9
:10153800522001F0A3F903461A461E4B1A600122F5
:1015480080211B4803F06EF81B4B1B881846FFF7D9
:10155800F5FD1A4B1B881846FFF7F0FD02F0EAFC70
:10156800C7F89000F1EE061AB1EE061AF1EE060A77
:10157800B1EE060AFFF748FD0A2002F0E7FC00BFBB
:10158800ECE700BFAFF30080B81E85EB51B89E3F73
:101598009A9999999999A93FEC0400203805002057
:1015A8005C0400200000144088050020A4020020EC
:1015B80000080242840500200200002000000020EC
:1015C80080B59EB000AF07F11803602200211846CD
:1015D8000CF086FA3B4600221A605A609A60DA607C
:1015E8001A615A61002003F0F9FD0346002B01D06F
:1015F80000F0F2FC1023BB6101237B631023BB6363
:101608004FF00053FB6300233B6507F118031846AE
:1016180003F070FE0346002B01D000F0DDFC1F2311
:101628003B6000237B600023BB606023FB600023DA
:101638003B6100237B613B460121184604F036FDDF
:101648000346002B01D000F0C7FC00BF7837BD4629
:1016580080BD000080B500AF1B4B1C4A1A601A4BB6
:1016680040F209525A60184B00229A60164B012228
:10167800DA60154B00221A61134B00225A61124B93
:1016880000229A61104B0022DA610F4B00221A6285
:101698000D4802F0DFFF0346002B01D000F09CFC50
:1016A8000021094803F002FD0346002B01D000F099
:1016B80093FC0021044803F044FD0346002B01D0AD
:1016C80000F08AFC00BF80BDFC01002000540040EF
:1016D80080B500AF1B4B1C4A1A601A4B40F20952E6
:1016E8005A60184B00229A60164B0122DA60154B9B
:1016F80000221A61134B00225A61124B00229A6190
:10170800104B0022DA610F4B00221A620D4802F0DA
:10171800A1FF0346002B01D000F05EFC0021094820
:1017280003F0C4FC0346002B01D000F055FC002157
:10173800044803F006FD0346002B01D000F04CFCE2
:1017480000BF80BD500200200058004080B500AFA7
:10175800214B224A1A60204B4FF416525A601E4BF6
:1017680000229A601C4B0022DA601B4B00221A618F
:10177800194B0C225A61184B00229A61164B002211
:101788001A62154B00229A62134B00225A661248BD
:1017980009F032FE0346002B01D000F01DFC0021A9
:1017A8000D480BF0BAF90346002B01D000F014FCE9
:1017B800002109480BF0EFF90346002B01D000F097
:1017C8000BFC05480BF070F90346002B01D000F024
:1017D80003FC00BF80BD00BFA40200200024004617
:1017E80080B500AF224B234A1A60214B4FF4E132F7
:1017F8005A601F4B00229A601D4B0022DA601C4B76
:1018080000221A611A4B0C225A61194B00229A6164
:10181800174B0022DA61164B00221A62144B002281
:101828005A62134B00229A62114809F0E5FD0346FB
:10183800002B01D000F0D0FB00210D480BF06DF912
:101848000346002B01D000F0C7FB002108480BF02D
:10185800A2F90346002B01D000F0BEFB04480BF0B0
:1018680023F90346002B01D000F0B6FB00BF80BD72
:1018780038030020004C004080B584B000AF3B1D09
:1018880000221A605A609A60304B314A1A602F4B16
:101898004FF480025A602D4B00229A602B4B07228E
:1018A800DA602A4B00221A61284B00225A61274B22
:1018B8004FF080629A61254B0022DA61234B0022A7
:1018C8001A62224B00225A62204B00229A621F4B56
:1018D8000722DA621D4B4FF080425A631B4B0022ED
:1018E8009A631A4B0022DA63184B00229A64174B4A
:1018F8000022DA64154B00221A65144B00225A653F
:10190800124B00229A65114B0022DA650F4B002218
:101918001A660E4807F058FB0346002B01D000F06A
:101928005BFB00237B604FF08053BB600023FB60B0
:101938003B1D1946054808F03CFA0346002B01D028
:1019480000F04AFB00BF1037BD4680BDCC03002025
:101958000030014080B584B000AF3B1D00221A6002
:101968005A609A60304B314A1A602F4B4FF480020C
:101978005A602D4B00229A602B4B0722DA602A4BC3
:1019880000221A61284B00225A61274B4FF08062CF
:101998009A61254B0022DA61234B00221A62224BFE
:1019A80000225A62204B00229A621F4B0722DA62F9
:1019B8001D4B4FF080425A631B4B00229A631A4B0F
:1019C8000022DA63184B00229A64174B0022DA646B
:1019D800154B00221A65144B00225A65124B00223F
:1019E8009A65114B0022DA650F4B00221A660E48E1
:1019F80007F0EAFA0346002B01D000F0EDFA0023C5
:101A08007B604FF00053BB600023FB603B1D194611
:101A1800054808F0CEF90346002B01D000F0DCFAA7
:101A280000BF1037BD4680BD5C0400200020004682
:101A380080B58EB000AF07F1280300221A605A6003
:101A48009A60DA6007F11C0300221A605A609A60F3
:101A58003B4600221A605A609A60DA601A615A613D
:101A68009A61324B324A1A60304B03225A602F4B2C
:101A780000229A602D4B44F62062DA602B4B00223C
:101A88001A612A4B00229A61284808F0D3F90346C4
:101A9800002B01D000F0A0FA4FF48053BB6207F18D
:101AA80028031946214808F0E3FC0346002B01D01F
:101AB80000F092FA1D4808F014FA0346002B01D0F2
:101AC80000F08AFA0023FB6100237B6207F11C0304
:101AD8001946164809F0CEFB0346002B01D000F04A
:101AE8007BFA60233B6000237B600023BB600023FC
:101AF8003B613B46082219460C4808F0A5FB034603
:101B0800002B01D000F068FA3B460C221946074822
:101B180008F09AFB0346002B01D000F05DFA034859
:101B280000F0DCFC00BF3837BD4680BDEC04002067
:101B38000004004080B58EB000AF07F128030022F2
:101B48001A605A609A60DA6007F11C0300221A6072
:101B58005A609A603B4600221A605A609A60DA60BE
:101B68001A615A619A613D4B3D4A1A603B4B032208
:101B78005A603A4B00229A60384B44F62062DA6089
:101B8800364B00221A61354B00229A61334808F01F
:101B980051F90346002B01D000F01EFA4FF4805390
:101BA800BB6207F1280319462C4808F061FC03467C
:101BB800002B01D000F010FA284808F092F90346EB
:101BC800002B01D000F008FA0023FB6100237B62A0
:101BD80007F11C031946214809F04CFB0346002B6A
:101BE80001D000F0F9F960233B6000237B600023FB
:101BF800BB6000233B613B4600221946174808F0AA
:101C080023FB0346002B01D000F0E6F93B460422F3
:101C18001946124808F018FB0346002B01D000F0C3
:101C2800DBF93B46082219460C4808F00DFB034631
:101C3800002B01D000F0D0F93B460C22194607488A
:101C480008F002FB0346002B01D000F0C5F9034859
:101C580000F044FC00BF3837BD4680BD3805002081
:101C6800000C004080B58AB000AF07F114030022D1
:101C78001A605A609A60DA601A61624BD3F88C3045
:101C8800604A43F00403C2F88C305E4BD3F88C30C2
:101C980003F004033B613B695A4BD3F88C30594A33
:101CA80043F08003C2F88C30564BD3F88C3003F0E5
:101CB8008003FB60FB68534BD3F88C30514A43F0E8
:101CC8000103C2F88C304F4BD3F88C3003F001037A
:101CD800BB60BB684B4BD3F88C304A4A43F00203D5
:101CE800C2F88C30474BD3F88C3003F002037B608A
:101CF8007B68444BD3F88C30424A43F00803C2F85F
:101D08008C30404BD3F88C3003F008033B603B68C1
:101D180000224CF2C0013C4802F084FC002203215E
:101D28003A4802F07FFC01220421394802F07AFC8B
:101D380001224021374802F075FC4CF240037B61D8
:101D48000123BB610023FB6100233B6207F11403FD
:101D580019462D4802F086FA03237B610123BB61F3
:101D68000023FB6100233B6207F11403194627484F
:101D780002F078FA4FF400437B61274BBB610023E4
:101D8800FB6107F114031946224802F06BFA80231D
:101D98007B610123BB610123FB6100233B6207F1E7
:101DA80014031946184802F05DFA4FF480737B61FA
:101DB800194BBB610023FB6107F114031946124854
:101DC80002F050FA04237B610123BB610123FB610C
:101DD80000233B6207F1140319460D4802F042FA4A
:101DE80040237B610123BB610123FB6100233B622C
:101DF80007F114031946074802F034FA00BF2837E0
:101E0800BD4680BD000C024600080242001C02428A
:101E1800000C024200040242000011100000000001
:101E280080B584B000AF78607B681B685A4A9342DB
:101E380040F0A380594B1B78432B40F09280574BBE
:101E48005B7803F00103FB60544B9B78502B2AD13D
:101E5800FB68002B13D0524B1B681846FEF774FB27
:101E680049A3D3E90023FEF711FA02460B461046B0
:101E78001946FEF7B9FE0346494A136078E0484B15
:101E88001B681846FEF760FB3FA3D3E90023FEF763
:101E9800FBF902460B4610461946FEF7A5FE034617
:101EA8003F4A136064E03D4B5B78492B2AD1FB68BD
:101EB800002B13D03B4B1B681846FEF745FB34A399
:101EC800D3E90023FEF7E2F902460B46104619460D
:101ED800FEF78AFE0346334A136049E0314B1B681C
:101EE8001846FEF731FB2AA3D3E90023FEF7CCF905
:101EF80002460B4610461946FEF776FE0346294A67
:101F0800136035E0254B5B78442B31D1FB68002BFF
:101F180013D0254B1B681846FEF716FB1CA3D3E904
:101F28000023FEF7B3F902460B4610461946FEF7A2
:101F38005BFE03461C4A13601AE01A4B1B681846DE
:101F4800FEF702FB12A3D3E90023FEF79DF9024630
:101F58000B4610461946FEF747FE0346114A136022
:101F680006E00E4B1B78442B02D1104B01221A605D
:101F780003220A490E4809F01DFB00BF1037BD4671
:101F880080BD00BFAFF300809A9999999999B93F9C
:101F98007B14AE47E17A843F002400468805002080
:101FA800040000208C0500209005002094050020E6
:101FB800A402002080B582B000AF7860391D4FF6CA
:101FC800FF730122034809F067FA7B68184608374F
:101FD800BD4680BDA402002080B400AF72B600BF29
:101FE80000BFFDE780B483B000AF0A4BD3F894304C
:101FF800084A43F00403C2F89430064BD3F89430EF
:1020080003F004037B607B6800BF0C37BD465DF8B6
:10201800047B7047000C024680B5BCB000AF786006
:1020280007F1DC0300221A605A609A60DA601A61CC
:1020380007F11803C022002118460BF051FD7B68F8
:102048001B684D4A934246D14FF040024FF00003BF
:10205800C7E906230023FB6707F11803184604F0B5
:10206800F5FB0346002B01D0FFF7B6FF434BD3F82F
:102078008C30424A43F00203C2F88C303F4BD3F80D
:102088008C3003F002037B617B694FF4C073C7F89F
:10209800DC301223C7F8E0300023C7F8E43000230F
:1020A800C7F8E8300423C7F8EC3007F1DC03194619
:1020B800334802F0D7F8314BD3F89C302F4A43F419
:1020C8000013C2F89C302D4BD3F89C3003F4001356
:1020D8003B613B694BE07B681B682A4A934246D1C7
:1020E8004FF080024FF00003C7E906230023C7F82A
:1020F800803007F11803184604F0A8FB0346002BAC
:1021080001D0FFF769FF1D4BD3F88C301B4A43F011
:102118000203C2F88C30194BD3F88C3003F0020359
:10212800FB60FB684FF4C043C7F8DC301223C7F8E4
:10213800E0300023C7F8E4300023C7F8E830042370
:10214800C7F8EC3007F1DC0319460D4802F08AF8AD
:102158000A4BD3F89C30094A43F48003C2F89C30F8
:10216800064BD3F89C3003F48003BB60BB6800BF08
:10217800F037BD4680BD00BF00540040000C024649
:10218800000402420058004080B5BCB000AF78603F
:1021980007F1DC0300221A605A609A60DA601A615B
:1021A80007F11803C022002118460BF099FC7B6840
:1021B8001B684C4A934245D14FF020024FF0000370
:1021C800C7E906230023BB6707F11803184604F084
:1021D8003DFB0346002B01D0FFF7FEFE424BD3F830
:1021E800A830414A43F04003C2F8A8303E4BD3F828
:1021F800A83003F040037B617B693B4BD3F88C30FC
:10220800394A43F00403C2F88C30374BD3F88C308A
:1022180003F004033B613B690323C7F8DC30022366
:10222800C7F8E0300023C7F8E4300023C7F8E830E7
:102238000823C7F8EC3007F1DC0319462B4802F0F5
:1022480011F84AE07B681B68294A934245D14FF050
:1022580008024FF00003C7E9062300233B6707F194
:102268001803184604F0F2FA0346002B01D0FFF7D2
:10227800B3FE1D4BD3F89C301B4A43F40023C2F82D
:102288009C30194BD3F89C3003F40023FB60FB68A7
:10229800154BD3F88C30144A43F00403C2F88C3041
:1022A800114BD3F88C3003F00403BB60BB684FF4C8
:1022B8004063C7F8DC300223C7F8E0300023C7F8D2
:1022C800E4300023C7F8E8300823C7F8EC3007F1FA
:1022D800DC031946054801F0C5FF00BFF037BD46CD
:1022E80080BD00BF00240046000C024600080242E0
:1022F800004C004080B5BCB000AF786007F1DC034B
:1023080000221A605A609A60DA601A6107F11803AD
:10231800C022002118460BF0E3FB7B681B684D4A7E
:10232800934247D14FF400024FF00003C7E9062358
:102338004FF48013C7F8C43007F11803184604F0A7
:1023480085FA0346002B01D0FFF746FE424BD3F82F
:10235800A430414A43F48053C2F8A4303E4BD3F82A
:10236800A43003F480537B617B693B4BD3F88C30FA
:10237800394A43F00103C2F88C30374BD3F88C301C
:1023880003F001033B613B69E023C7F8DC3002231B
:10239800C7F8E0300023C7F8E4300023C7F8E83076
:1023A8000523C7F8EC3007F1DC0319462B4801F088
:1023B80059FF4AE07B681B68294A934245D14FF090
:1023C80000724FF00003C7E906230823C7F8CC3092
:1023D80007F11803184604F039FA0346002B01D018
:1023E800FFF7FAFD1C4BD3F8A8301B4A43F0200333
:1023F800C2F8A830184BD3F8A83003F02003FB60CC
:10240800FB68154BD3F88C30134A43F00203C2F82B
:102418008C30114BD3F88C3003F00203BB60BB68DF
:102428003823C7F8DC300223C7F8E0300023C7F8A8
:10243800E4300023C7F8E8300623C7F8EC3007F18A
:10244800DC031946074801F00DFF00BFF037BD4611
:1024580080BD00BF00300140000C0246000002426F
:10246800002000460004024280B485B000AF7860C6
:102478007B681B68164A93420FD1164BD3F89C30E1
:10248800144A43F00203C2F89C30124BD3F89C3034
:1024980003F00203FB60FB6813E07B681B680E4ACD
:1024A80093420ED10B4BD3F89C300A4A43F00803F1
:1024B800C2F89C30074BD3F89C3003F00803BB608C
:1024C800BB6800BF1437BD465DF8047B704700BF8A
:1024D80000040040000C0246000C004080B58AB0A1
:1024E80000AF786007F1140300221A605A609A60FE
:1024F800DA601A617B681B68254A93421FD1254B15
:10250800D3F88C30234A43F00203C2F88C30214BB5
:10251800D3F88C3003F002033B613B6903237B61F2
:102528000223BB610023FB6100233B6202237B6221
:1025380007F114031946184801F094FE23E07B685C
:102548001B68164A93421ED1124BD3F88C30114A9D
:1025580043F00103C2F88C300E4BD3F88C3003F0F3
:102568000103FB60FB680F237B610223BB6100232F
:10257800FB6100233B6202237B6207F114031946C7
:10258800074801F06FFE00BF2837BD4680BD00BF79
:1025980000040040000C024600040242000C004007
:1025A8000000024280B400AF00BFFDE780B400AF76
:1025B80000BFFDE780B400AF00BFFDE780B400AF07
:1025C80000BFFDE780B400AF00BFFDE780B400AFF7
:1025D80000BFBD465DF8047B704780B400AF00BF04
:1025E800BD465DF8047B704780B400AF00BFBD46B0
:1025F8005DF8047B704780B500AF01F087FC00BF31
:1026080080BD80B400AF01231846BD465DF8047B49
:10261800704780B582B000AF786039600BF0C2FABD
:10262800034616221A604FF0FF3318460837BD4696
:1026380080BD80B582B000AF78604FF0FF31786818
:10264800FFF7E7FF00BFFDE780B586B000AFF86091
:10265800B9607A6000237B610AE0AFF3008001462D
:10266800BB685A1CBA60CAB21A707B6901337B61B5
:102678007A697B689A42F0DB7B6818461837BD4652
:1026880080BD80B586B000AFF860B9607A6000237D
:102698007B6109E0BB685A1CBA601B781846FFF7D3
:1026A80089FC7B6901337B617A697B689A42F1DB3B
:1026B8007B6818461837BD4680BD80B483B000AF2C
:1026C80078604FF0FF3318460C37BD465DF8047B41
:1026D800704780B483B000AF786039603B684FF4CE
:1026E80000525A60002318460C37BD465DF8047B3B
:1026F800704780B483B000AF7860012318460C3768
:10270800BD465DF8047B704780B485B000AFF860C3
:10271800B9607A60002318461437BD465DF8047B1B
:102728007047000080B586B000AF7860144A154B3A
:10273800D31A7B617B693B61134B1B68002B02D169
:10274800114B124A1A60104B1A687B6813443A6995
:102758009A4207D20BF026FA03460C221A604FF071
:10276800FF3309E0084B1B68FB60074B1A687B685E
:102778001344054A1360FB6818461837BD4680BDE8
:102788000000042000040000980500201008002024
:1027980080B400AF184BD3F88830174A43F470035D
:1027A800C2F88830154B01221A60144B0022DA61F6
:1027B800124B00221A62114B00225A620F4B1B68FF
:1027C8000E4A23F0A85323F4102313600B4B002266
:1027D8009A620A4B1B68094A23F480231360074B4B
:1027E80000221A65044B4FF000629A6000BFBD4694
:1027F8005DF8047B704700BF00ED00E0000C024666
:1028080080B588B002AF0346B9607A60FB817B6807
:102818000A337B617B689AB27B69F9890093134616
:10282800BA68054801F0B2FF03463B613B691846A8
:102838001837BD4680BD00BF5002002080B588B063
:1028480002AF0346B9607A60FB817B680A337B611B
:10285800FB8943F0010399B27B689AB27B690093C4
:102868001346BA68044802F085F803463B613B69A1
:1028780018461837BD4680BD5002002080B584B088
:1028880000AF0346FB800B46BB801346FB7000235A
:10289800FB73BB881B0A9BB2DAB20D4B1A70BB885C
:1028A800DAB20B4B5A700A4AFB789370FB88032202
:1028B80007491846FFF7A4FFB860BB68002B01D092
:1028C800F323FB7397F90F3018461037BD4680BDC8
:1028D8009C05002080B584B000AF0346FB800B4602
:1028E800BB8013467B800023FB73BB881B0A9BB20B
:1028F800DAB2114B1A70BB88DAB20F4B5A707B8868
:102908001B0A9BB2DAB20C4B9A707B88DAB20A4B7C
:10291800DA70FB88042208491846FFF771FFB8608F
:10292800BB68002B01D0F323FB7397F90F301846CF
:102938001037BD4680BD00BF9C05002080B584B01F
:1029480000AF03463A60FB800B46BB800023FB7355
:10295800BB881B0A9BB2DAB2154B1A70BB88DAB275
:10296800134B5A703B681B0EDAB2114B9A703B68D6
:102978001B0CDAB20E4BDA703B681B0ADAB20C4B4E
:102988001A713B68DAB20A4B5A71FB880622084969
:102998001846FFF735FFB860BB68002B01D0F3235A
:1029A800FB7397F90F3018461037BD4680BD00BF3E
:1029B8009C05002080B584B000AF03463A60FB80D8
:1029C8000B46BB800023FB73BB881B0A9BB2DAB2A1
:1029D800134B1A70BB88DAB2114B5A70FB8802226B
:1029E8000F491846FFF70CFFB860BB68002B02D0F0
:1029F800F323FB730DE0FB88012239681846FFF7C3
:102A08001DFFB860BB68002B02D0F323FB7300E006
:102A180000BF97F90F3018461037BD4680BD00BF7C
:102A28009C05002080B584B000AF03463A60FB8067
:102A38000B46BB800023FB73BB881B0A9BB2DAB230
:102A4800174B1A70BB88DAB2154B5A70FB880222F2
:102A580013491846FFF7D4FEB860BB68002B02D0B4
:102A6800F323FB7316E0FB8802220D491846FFF793
:102A7800E5FEB860BB68002B02D0F323FB7309E0C6
:102A8800074B1B781B029BB2054A527813449AB233
:102A98003B681A8097F90F3018461037BD4680BD3D
:102AA8009C05002080B582B000AF03463960FB80EA
:102AB8003B68184601F04AFA002318460837BD4615
:102AC80080BD00000D488546FFF762FE0C480D49A1
:102AD8000D4A002302E0D458C4500433C4188C4271
:102AE800F9D30A4A0A4C002301E013600432A242D7
:102AF800FBD30BF05DF8FEF783FBFEE70000042034
:102B080000000020DC0100206CFC0008E00100202F
:102B18000A080020FEE7000080B584B000AF7860A6
:102B280000F0F4F9064A7B68136000F003F90346E5
:102B3800FB6000F0D5F800BF1037BD4680BD00BF70
:102B48009C06002080B500AF002000F06FF90A2134
:102B58000A2000F043F9802000F0BAF9022000F0C2
:102B6800A5F9502000F090F900BF80BD00000000DA
:102B780080B594B000AF012387F84F30032000F0F0
:102B880055F90C210A2000F029F9052001F0DEF999
:102B980000F0B0F90D216D2000F0EEF900F0B6F963
:102BA800372001F0D3F900F0D9F8B0EE405AF0EE32
:102BB800605AB0EE416AF0EE616AB0EE427AF0EE29
:102BC800627A87ED0C5B87ED0E6B87ED107B00F06A
:102BD80091F909216D2000F0CFF900F097F937201D
:102BE80001F0B4F900F0BAF8B0EE405AF0EE605ACD
:102BF800B0EE416AF0EE616AB0EE427AF0EE627AC7
:102C080087ED065B87ED086B87ED0A7B00F072F9AC
:102C180000216D2000F0B0F900F078F9372001F0BC
:102C280095F997ED063B97ED084B97ED0A5B97ED05
:102C38000C2B97ED0E6B97ED107BB0EE420AF0EE81
:102C4800620AB0EE461AF0EE661AB0EE472AF0EEC7
:102C5800672A00F02EFCB0EE405AF0EE605AB0EE53
:102C6800416AF0EE616AB0EE427AF0EE627A87ED80
:102C7800005B87ED026B87ED047BD7E9000114A3A5
:102C8800D3E90023FDF73EFF0346002B15D0D7E913
:102C980002010FA3D3E90023FDF734FF0346002BFD
:102CA8000BD0D7E904010CA3D3E90023FDF72AFFD1
:102CB8000346002B01D0012300E0002387F84F30A2
:102CC80097F84F3018465037BD4680BDAFF30080A7
:102CD80005A3923A019D234005A3923A019D134012
:102CE80080B582B000AF00F005F93B1D02221946FD
:102CF800402000F017F900F009F93B791B09DAB216
:102D08000A4B1A703B7903F00F03DAB2084B1A70BA
:102D18007B7903F00303DBB27B717B79184600F003
:102D280013FA00BF0837BD4680BD00BFB0060020BB
:102D3800B106002080B582B000AF0023FB7100F01F
:102D4800D9F8FB1D01221946002000F0EBF800F02D
:102D5800DDF8FB7918460837BD4680BDB0B58EB0A2
:102D680000AF00F0C7F807F1180306221946122031
:102D780000F0D8F800F0CAF807F11803184600F078
:102D880017F9B0EE405AF0EE605AB0EE416AF0EE34
:102D9800616AB0EE427AF0EE627A87ED085B87ED01
:102DA8000A6B87ED0C7BD7E90845D7E90A01D7E913
:102DB8000C2345EC154B41EC160B43EC172BB0EEEE
:102DC800450AF0EE650AB0EE461AF0EE661AB0EE65
:102DD800472AF0EE672A3837BD46B0BD80B584B0C3
:102DE80000AF03460A46FB711346BB7197F90730DB
:102DF8001B015AB297F9063013435BB2FB7300F01C
:102E080079F8FB7B1946402000F0B6F800F07EF810
:102E1800044AFB791370044ABB79137000BF10375A
:102E2800BD4680BDB0060020B106002080B582B046
:102E380000AF0346FB7100F05DF8FB7919464120AD
:102E480000F09AF800F062F8FB79184600F07CF977
:102E580000BF0837BD4680BD80B500AF00F04AF816
:102E680000217C2000F088F800F050F800BF80BDF9
:102E780080B500AF00F03EF804217D2000F07CF81A
:102E880000F044F800BF80BD80B582B000AF0346B3
:102E9800FB7100F02FF8FB791946492000F06CF817
:102EA80000F034F800BF0837BD4680BD80B582B059
:102EB80000AF0346FB7100F01DF8FB791946482066
:102EC80000F05AF800F022F800BF0837BD4680BD70
:102ED80080B582B000AF0346FB7100F00BF8FB79B8
:102EE8001946452000F048F800F010F800BF0837F0
:102EF800BD4680BD80B500AF00220421024801F024
:102F080091FB00BF80BD00BF000C024280B500AF3E
:102F180001220421024801F085FB00BF80BD00BFEB
:102F2800000C024280B584B000AF0346B9607A60F5
:102F3800FB73FB7B63F07F03DBB2FB730D4B1868FD
:102F480007F10F016423012206F054F9094B1868B0
:102F580064230122B96806F061FB064B18687B6898
:102F68009AB26423B96806F059FB00BF1037BD4612
:102F780080BD00BF9C06002080B584B000AF03462A
:102F88000A46FB711346BB71FB793B73BB797B73B4
:102F9800054B186807F10C016423022206F02AF990
:102FA80000BF1037BD4680BD9C0600200000000011
:102FB800B0B598B000AFF861FB6901331B781B020C
:102FC8009BB2FA69127813449BB21BB21A465A4B49
:102FD8001B78194602238B4002FB03F3FB65FB6950
:102FE80003331B781B029BB2FA690232127813442E
:102FF8009BB21BB21A46504B1B78194602238B40D2
:1030080002FB03F3BB65FB6905331B781B029BB20C
:10301800FA690432127813449BB21BB21A46464B23
:103028001B78194602238B4002FB03F37B65F86D7E
:10303800FDF778FA4FF00002404BFDF707FC024617
:103048000B46104619464FF000023D4BFDF7D4FAE7
:1030580002460B461046194635A3D3E90023FDF76F
:10306800CBFA02460B46C7E90823786DFDF75AFAF2
:103078004FF00002314BFDF7E9FB02460B461046C4
:1030880019464FF000022E4BFDF7B6FA02460B46E2
:103098001046194626A3D3E90023FDF7ADFA0246E8
:1030A8000B46C7E90C23B86DFDF73CFA4FF0000258
:1030B800224BFDF7CBFB02460B46104619464FF054
:1030C80000021F4BFDF798FA02460B4610461946B8
:1030D80017A3D3E90023FDF78FFA02460B46C7E989
:1030E8000A2307F1380407F120050FCD0FC495E82E
:1030F800030084E80300D7E90E45D7E91001D7E9B2
:10310800122345EC154B41EC160B43EC172BB0EE94
:10311800450AF0EE650AB0EE461AF0EE661AB0EE11
:10312800472AF0EE672A6037BD46B0BDAFF300808E
:1031380005A3923A019D2340A00600200000E0402C
:103148000000F83F0000000080B483B000AF0346E1
:10315800FB71254AFB791370FB79032B26D801A252
:1031680052F823F07D3100088B31000899310008AE
:10317800A73100081D4914A3D3E90023C1E900239E
:103188001CE01A4912A3D3E90023C1E9002315E082
:10319800164911A3D3E90023C1E900230EE013491E
:1031A8000FA3D3E90023C1E9002307E00F494FF03B
:1031B80000024FF00003C1E9002300BF00BF0C3735
:1031C800BD465DF8047B704788F4DBD7816B3D40D2
:1031D80088F4DBD7816B4D4088F4DBD7816B5D4089
:1031E80088F4DBD7816B6D40A0060020A80600207C
:1031F80080B582B000AF786000F0D0F8044A7B68F0
:10320800136000F017F800BF0837BD4680BD00BF47
:10321800B406002080B500AF012000F077F8022046
:1032280000F08CF8802000F09BF800F003F800BF55
:1032380080BD000080B582B000AF00F0A3F83B1D50
:10324800022219460F2000F0B5F800F0A7F83A79E5
:10325800054B1A707B7903F07F03DAB2034B1A70BF
:1032680000BF0837BD4680BDB8060020B90600205B
:1032780080B582B000AF0023BB710023FB7100F062
:1032880081F801213C2000F0B7F800F087F80FE042
:10329800642000F05BFE00F075F8BB1D01221946A2
:1032A8003C2000F087F800F079F8FB790133FB71D6
:1032B800BB7903F00203002B02D1FB79092BE7D974
:1032C800BB7903F00203002B08D0BB7903F0040399
:1032D800002B0CBF01230023DBB200E000231846BB
:1032E8000837BD4680BD80B582B000AF0346FB718C
:1032F80000F048F8FB791946112000F07DF800F03D
:103308004DF800BF0837BD4680BD000080B582B0CB
:1033180000AF0346FB7100F035F8074AFB791370DC
:10332800FB7919460F2000F067F800F037F800BF66
:103338000837BD4680BD00BFB806002080B582B002
:1033480000AF0346FB7100F01DF8FB791946102009
:1033580000F052F800F022F800BF0837BD4680BDE3
:1033680080B582B000AF0346FB7100F00BF8FB7923
:1033780019463E2000F040F800F010F800BF08376A
:10338800BD4680BD80B500AF00224021024801F053
:1033980049F900BF80BD00BF0004024280B500AFFC
:1033A80001224021024801F03DF900BF80BD00BF65
:1033B8000004024280B586B000AF0346B9607A6067
:1033C800FB73FB7B63F07F03DBB2FB75094B18686B
:1033D80007F117016423012205F00CFF054B18685B
:1033E8007B689AB26423B96806F018F900BF1837E9
:1033F800BD4680BDB406002080B584B000AF03464A
:103408000A46FB711346BB71FB793B73BB797B732F
:10341800054B186807F10C016423022205F0EAFE47
:1034280000BF1037BD4680BDB406002080B582B00D
:1034380000AF78607868FFF76FFB7868FFF7D8FE11
:1034480000BF0837BD4680BD80B500AFFFF77AFBE7
:10345800FFF7E0FE00BF80BD80B500AFFFF7FCFCC2
:10346800FFF706FD0020FFF73EFF642000F06EFD29
:1034780000BF80BD80B582B000AF00237B60FFF73E
:1034880077FB0346002B02D14FF0FF337B60FFF739
:10349800EFFE0346002B02D17B68023B7B607B6812
:1034A800002B01D07B6800E0012318460837BD4691
:1034B80080BDB0B59EB000AFB0EE446AF0EE646A6D
:1034C800B0EE457AF0EE657A87ED0C0B87ED0E1BB2
:1034D80087ED102B87ED063B87ED086B87ED0A7BA0
:1034E800D7E90C01D7E90623FCF7CEFE02460B46C6
:1034F800C7E91223D7E90E01D7E90823FCF7C4FE70
:1035080002460B46C7E91423D7E91001D7E90A2375
:10351800FCF7BAFE02460B46C7E9162307F160041A
:1035280007F148050FCD0FC495E8030084E80300B0
:10353800D7E91845D7E91A01D7E91C2345EC154BFB
:1035480041EC160B43EC172BB0EE450AF0EE650A7A
:10355800B0EE461AF0EE661AB0EE472AF0EE672A89
:103568007837BD46B0BD000080B584B000AF0346D3
:10357800FB800023FB730023BB730023FB72002333
:10358800BB812D23BB7313E0BB7B99B2BB7B2D3B67
:10359800354AD25CFB881846FFF770F903461A468D
:1035A80097F90F3013435BB2FB73BB7B0133BB73DB
:1035B800BB7B872BE8D9FB88184600F0D6F8034672
:1035C8001A46FB7B1343FB731AE007F10B02FB88D7
:1035D8001146184600F0FBF80346FB73BB8901331C
:1035E800BB81BB89B3F57A7F03D3FF23FB73FB7BD6
:1035F80036E0FB8801211846FFF754FA0346FB73AF
:10360800FB7A002BE1D0FB88184600F02FF8034620
:103618001A46FB7B1343FB73FB88184600F0BEF881
:1036280003461A46FB7B1343FB73FB8809220821D8
:103638001846FFF723F903461A4697F90F30134344
:103648005BB2FB73FB8800220B211846FFF716F9C3
:1036580003461A4697F90F3013435BB2FB73FB7BA3
:1036680018461037BD4680BDE4F7000880B584B021
:1036780000AF0346FB800023FB73FB8801228621F1
:103688001846FFF7FBF803461A4697F90F3013431D
:103698005BB2FB73FB7B18461037BD4680BD80B517
:1036A80084B000AF03460A46FB8013467B710023B3
:1036B800FB7307F10E02FB8830211846FFF77AF9F1
:1036C80003461A4697F90F3013435BB2FB73BB7B73
:1036D80023F01003DBB2BB737B7903F00103002BEB
:1036E80001D1102200E00022BB7B5BB213435BB226
:1036F800DAB2FB8830211846FFF7C0F803461A46AD
:1037080097F90F3013435BB2FB73FB7B18461037F6
:10371800BD4680BD80B584B000AF03463960FB80EC
:103728000023FB7307F10E02FB8830211846FFF7D0
:1037380041F903461A4697F90F3013435BB2FB73FE
:10374800BB7B03F01003DBB2BB73BB7B1B09DBB293
:10375800002B0CBF01230023DBB21A463B681A700A
:10376800FB7B18461037BD4680BD80B584B000AFDE
:103778000346FB800023FB73FB8840228721184601
:10378800FFF77CF803461A4697F90F3013435BB2EC
:10379800FB73FB7B18461037BD4680BD80B584B0EF
:1037A80000AF0346FB800023FB73FB8800228721C0
:1037B8001846FFF763F803461A4697F90F30134384
:1037C8005BB2FB73FB7B18461037BD4680BD80B5E6
:1037D80084B000AF03463960FB800023FB7307F118
:1037E8000D02FB8811461846FFF794FF03461A4658
:1037F800FB7B1343FB7307F10E02FB88312118464C
:10380800FFF7D8F803461A4697F90F3013435BB20F
:10381800FB73FB7B002B0CD1BB7B03F001037A7B92
:10382800934203D13B6801221A7002E03B680022F0
:103838001A70FB7B18461037BD4680BD80B584B032
:1038480000AF03460A46FB801346BB800023FB7388
:1038580007F10C02FB881146184600F027FA0346C8
:103868001A46FB7B1343FB73BB89002B01D1012351
:10387800F5E0BB89012B40F08280BB88B3F5FA7F65
:103888006BD0B3F5FA7F77DCC82B57D0C82B73DC25
:10389800642B44D0642B6FDC322B31D0322B6BDCA1
:1038A800212B20D0212B67DC0F2B02D0142B0DD01D
:1038B80062E0FB881D225E211846FFF70BF8FB88A3
:1038C800272261211846FFF705F8C7E0FB88512237
:1038D8005E211846FEF7FEFFFB886E22612118461E
:1038E800FEF7F8FFBAE0FB88D6225E211846FEF7FD
:1038F800F1FFFB886E2261211846FEF7EBFFADE071
:10390800FB884FF4D7725E211846FEF7E3FFFB8869
:103918004FF4F47261211846FEF7DCFF9EE0FB8845
:1039280040F2E1225E211846FEF7D4FFFB884FF4EF
:10393800627261211846FEF7CDFF8FE0FB8840F2E6
:10394800E1325E211846FEF7C5FFFB8840F2964239
:1039580061211846FEF7BEFF80E0FB8840F29152D5
:103968005E211846FEF7B6FFFB8840F2C15261217E
:103978001846FEF7AFFF71E00123FB736EE0BB88CA
:10398800B3F5FA7F58D0B3F5FA7F64DCC82B44D07E
:10399800C82B60DC642B31D0642B5CDC322B20D04C
:1039A800322B58DC142B02D0212B0DD053E0FB888E
:1039B8001E225E211846FEF78DFFFB882222612118
:1039C8001846FEF787FF49E0FB8860225E2118460B
:1039D800FEF780FFFB886E2261211846FEF77AFF0A
:1039E8003CE0FB88AD225E211846FEF773FFFB889A
:1039F800C62261211846FEF76DFF2FE0FB884FF4C1
:103A0800E6725E211846FEF765FFFB884FF4F572F3
:103A180061211846FEF75EFF20E0FB8840F2D922BC
:103A28005E211846FEF756FFFB884FF43E7261216F
:103A38001846FEF74FFF11E0FB8840F28F425E21E7
:103A48001846FEF747FFFB8840F2A442612118465A
:103A5800FEF740FF02E00123FB7300BFFB7B184623
:103A68001037BD4680BD80B584B000AF03463960CD
:103A7800FB800023FB7307F10C02FB885E211846CC
:103A8800FEF7D0FF03461A4697F90F3013435BB28F
:103A9800FB73BB8940F2915293425BD040F2915242
:103AA80093425CDC40F28F42934253D0B3F5926F5D
:103AB80055DA40F2E132934248D040F2E132934283
:103AC8004DDC40F2E12293423CD040F2E1229342A5
:103AD80045DC40F2D922934238D040F2D9229342B1
:103AE8003DDCB3F5E67F2DD0B3F5E67F37DCB3F5E3
:103AF800D77F23D0B3F5D77F31DCD62B1AD0D62B7E
:103B08002DDCAD2B1AD0AD2B29DC602B12D0602B0D
:103B180025DC512B0AD0512B21DC1D2B02D01E2B6A
:103B280004D01CE03B680F221A801DE03B68142279
:103B38001A8019E03B6821221A8015E03B6832227E
:103B48001A8011E03B6864221A800DE03B68C822A5
:103B58001A8009E03B684FF4FA721A8004E00123E6
:103B6800FB733B6800221A80FB7B18461037BD4662
:103B780080BD80B584B000AF03460A46FB8013467B
:103B8800BB800023FB7307F10C02FB881146184623
:103B9800FFF769FF03461A46FB7B1343FB73FB7B66
:103BA800002B01D001237DE0BB88012B02D0022B22
:103BB80033D065E0FB8814224B211846FEF75EFEE1
:103BC8000346FB73FB88072260211846FEF756FE62
:103BD8000346FB73FB88052263211846FEF74EFE59
:103BE8000346FB73FB88382269211846FEF746FE18
:103BF8000346FB73FB8840F2057278211846FEF7EE
:103C080069FE0346FB73FB8840F206627A21184678
:103C1800FEF760FE0346FB7335E0FB880A224B2162
:103C28001846FEF72BFE0346FB73FB880F22602124
:103C38001846FEF723FE0346FB73FB880D2263211B
:103C48001846FEF71BFE0346FB73FB88B822692162
:103C58001846FEF713FE0346FB73FB8840F60D7209
:103C680078211846FEF736FE0346FB73FB8840F6BC
:103C78000E627A211846FEF72DFE0346FB7302E01A
:103C88000123FB7300BFFB7B002B0AD1BA89FB8899
:103C980011461846FFF7D2FD03461A46FB7B13432D
:103CA800FB73FB7B18461037BD4680BD80B584B0DA
:103CB80000AF03463960FB800023FB7307F10E0257
:103CC800FB884B211846FEF775FE03461A4697F9FE
:103CD8000F3013435BB2FB73BB7B142B02D13B68E1
:103CE80001221A80BB7B0A2B02D13B6802221A8070
:103CF800FB7B18461037BD4680BD00000000000061
:103D080080B584B000AF03463960FB800023FB73A5
:103D180007F10C02FB88DE211846FEF783FE0346F6
:103D28001A4697F90F3013435BB2FB73BB89C3F391
:103D380009039BB2BB81BB891A463B6802FB03F3AC
:103D48001846FCF7DFFB0CA3D3E90023FCF754FC6F
:103D580002460B4610461946FCF726FF0246FB882A
:103D68006C211846FEF7EAFDFB7B18461037BD4666
:103D780080BD00BFAFF30080333333333333F13FBB
:103D880080B584B000AF03463960FB800023FB7325
:103D98000023BB7307F10E02FB88E5211846FEF7E6
:103DA80009FE03461A4697F90F3013435BB2FB73BB
:103DB800BA7B3B681A70FB7B18461037BD4680BD3E
:103DC80080B500AF124B1B68114A43F4807313602F
:103DD800032000F06EF902F05BFB02460D4B1B6AF4
:103DE80003F00F030C49CB5C22FA03F30B4A136070
:103DF800042000F0A5F90F2000F012F80346002B6C
:103E080001D0012302E0FEF7EDF80023184680BD3B
:103E180000200240000C02468CF700080800002031
:103E280080B584B000AF78600023FB60334B1B780B
:103E3800002B01D101235CE0314B1B6803F0040324
:103E4800042B0CD12F4B1A682C4B1B7819464FF4B6
:103E58007A73B3FBF1F3B2FBF3F3FB6037E000F0E6
:103E6800C7F9B860BB68022B23D0BB68022B2DD8DA
:103E7800BB68002B03D0BB68012B0DD026E0214B7B
:103E88001A681E4B1B7819464FF4FA53B3FBF1F32B
:103E9800B2FBF3F3FB601AE0184B1B781A464FF499
:103EA8007A73B3FBF2F34FF4FA42B2FBF3F3FB601D
:103EB8000DE0124B1B781A464FF47A73B3FBF2F3FA
:103EC8004FF40042B2FBF3F3FB6000E000BFF86878
:103ED80000F014F90346002B01D0012309E0002269
:103EE80079684FF0FF3000F0EFF8074A7B681360FD
:103EF800002318461037BD4680BD00BF10000020C3
:103F080010E000E0080000200C00002080B400AFA2
:103F1800064B1B781A46064B1B681344044A136069
:103F280000BFBD465DF8047B704700BF100000204D
:103F3800BC06002080B400AF034B1B681846BD4682
:103F48005DF8047B704700BFBC06002080B584B0D4
:103F580000AF7860FFF7EEFFB8607B68FB60FB6836
:103F6800B3F1FF3F05D00A4B1B781A46FB68134490
:103F7800FB6000BFFFF7DEFF0246BB68D31AFA6892
:103F88009A42F7D800BF00BF1037BD4680BD00BFBA
:103F98001000002080B485B000AF78607B6803F023
:103FA8000703FB600C4BDB68BB60BA684FF6FF0386
:103FB8001340BB60FB681A02BB68134343F0BF633E
:103FC80043F40033BB60044ABB68D36000BF1437B6
:103FD800BD465DF8047B704700ED00E080B400AF9B
:103FE800044BDB681B0A03F007031846BD465DF85F
:103FF800047B704700ED00E080B483B000AF034657
:104008003960FB7197F90730002B0ADB3B68DAB29D
:104018000C4997F907301201D2B20B4483F80023F8
:104028000AE03B68DAB20849FB7903F00F03043B66
:104038001201D2B20B441A7600BF0C37BD465DF8A8
:10404800047B704700E100E000ED00E080B489B037
:1040580000AFF860B9607A60FB6803F00703FB61A2
:10406800FB69C3F10703042B28BF0423BB61FB6969
:104078000433062B02D9FB69033B00E000237B6174
:104088004FF0FF32BB6902FA03F3DA43BB681A4008
:104098007B699A404FF0FF317B6901FA03F3D943FA
:1040A8007B680B40134318462437BD465DF8047BF4
:1040B800704780B582B000AF78607868FFF76AFF14
:1040C80000BF0837BD4680BD80B586B000AF034647
:1040D800B9607A60FB73FFF781FF78617A68B96825
:1040E8007869FFF7B3FF024697F90F301146184673
:1040F800FFF782FF00BF1837BD4680BD80B483B08C
:1041080000AF78607B68013BB3F1807F01D3012366
:104118000DE00A4A7B68013B5360084B00229A6015
:10412800064B1B68054A43F0030313600023184637
:104138000C37BD465DF8047B704700BF10E000E017
:1041480080B483B000AF78607B68042B44D801A2A8
:1041580052F823F07F4100089D410008BF41000844
:10416800E1410008714100081F4B1B681E4A43F0DB
:104178000403136031E01C4B1B681B4A23F0040343
:1041880013601A4BD3F8E030184A23F44003C2F8FE
:10419800E03022E0144B1B68134A23F00403136039
:1041A800124BD3F8E03023F44003104A43F4800361
:1041B800C2F8E03011E00C4B1B680B4A23F00403F3
:1041C80013600A4BD3F8E03023F44003074A43F462
:1041D8000003C2F8E03000E000BF00BF0C37BD4666
:1041E8005DF8047B704700BF10E000E0000C024659
:1041F80080B483B000AF194B1B6803F00403002B95
:1042080002D004237B6021E0154BD3F8E03003F49F
:1042180040033B603B68B3F5000F11D03B68B3F532
:10422800000F10D83B68002B04D03B68B3F5800F13
:1042380003D008E000237B6008E001237B6005E0F1
:1042480002237B6002E000237B6000BF7B68184686
:104258000C37BD465DF8047B704700BF10E000E0F6
:10426800000C024680B489B000AF78603960002342
:104278007B617B683B61C2E13B681A6801217B690D
:1042880001FA03F31340FB607B69BB61FB68002BF9
:1042980000F0B2817B68554A93425DD17B681B6808
:1042A800FB6101227B6902FA03F3DB43FA691340DD
:1042B800FB613B685B6803F001027B6902FA03F368
:1042C800FA691343FB617B68FA691A60484A7B699B
:1042D80052F833303B61464A7B69DB0013445B6824
:1042E800BB61BB69DA083B69083253F82230FB61CD
:1042F800BB6903F007039B000F2202FA03F3DB43B9
:10430800FA691340FB61BB6903F007039B000B22AA
:1043180002FA03F3FA691343FB61BB69DA083B69E4
:104328000832F96943F822103B691B68FB61BB69D5
:104338005B00032202FA03F3DB43FA691340FB61D3
:10434800BB695B00022202FA03F3FA691343FB61BB
:104358003B69FA691A6067E03B685B68022B03D027
:104368003B685B68122B45D17B69DA087B680832A9
:1043780053F82230FB617B6903F007039B000F228F
:1043880002FA03F3DB43FA691340FB613B681B69DC
:1043980003F00F027B6903F007039B0002FA03F3A3
:1043A800FA691343FB617B69DA087B680832F969AB
:1043B80043F822103B691B68FB61BB695B00032261
:1043C80002FA03F3DB43FA691340FB613B685B685D
:1043D80003F00302BB695B0002FA03F3FA691343B3
:1043E800FB613B69FA691A601EE000BF00000246E3
:1043F80040F800083B691B68FB61BB695B0003224E
:1044080002FA03F3DB43FA691340FB613B685B681C
:1044180003F00302BB695B0002FA03F3FA69134372
:10442800FB613B69FA691A603B685B68012B0BD03A
:104438003B685B68022B07D03B685B68112B03D095
:104448003B685B68122B30D13B699B68FB61BB6999
:104458005B00032202FA03F3DB43FA691340FB61B2
:104468003B68DA68BB695B0002FA03F3FA69134335
:10447800FB613B69FA699A603B695B68FB610122F1
:10448800BB6902FA03F3DB43FA691340FB613B683B
:104498005B681B0903F00102BB6902FA03F3FA69BE
:1044A8001343FB613B69FA695A603B685B68032BFD
:1044B80007D13B685B68032B1BD13B689B68012BCA
:1044C80017D03B69DB68FB61BB695B00032202FA1A
:1044D80003F3DB43FA691340FB613B689A68BB69E5
:1044E8005B0002FA03F3FA691343FB613B69FA695B
:1044F800DA603B685B6803F08053002B7CD0474A46
:104508007B699B08183352F82330FB617B6903F001
:104518000303DB000F2202FA03F3DB43FA691340BB
:10452800FB617B689A0A3E4B13407A6902F00302EA
:10453800D2009340FA691343FB6138497B699B08B1
:104548001833FA6941F82320344B1B68FB61FB6878
:10455800DB43FA691340FB613B685B6803F4801333
:10456800002B03D0FA69FB681343FB612B4AFB69F4
:1045780013602A4B5B68FB61FB68DB43FA691340F5
:10458800FB613B685B6803F40013002B03D0FA69F6
:10459800FB681343FB61214AFB6953601F4BD3F847
:1045A8008430FB61FB68DB43FA691340FB613B68BD
:1045B8005B6803F40033002B03D0FA69FB681343EC
:1045C800FB61164AFB69C2F88430144BD3F880307B
:1045D800FB61FB68DB43FA691340FB613B685B687E
:1045E80003F48033002B03D0FA69FB681343FB61A3
:1045F8000A4AFB69C2F880307B6901337B613B68FA
:104608001A687B6922FA03F3002B7FF435AE00BFEA
:1046180000BF2437BD465DF8047B70470020024682
:104628007F7F2F0080B483B000AF78600B467B801B
:1046380013467B707B78002B03D07A887B689A615D
:1046480002E07A887B689A6200BF0C37BD465DF845
:10465800047B704780B582B000AF78607B68002B20
:1046680001D101238DE07B6893F84130DBB2002B48
:1046780006D17B68002283F840207868FDF7CCFCDF
:104688007B68242283F841207B681B681A687B6852
:104698001B6822F001021A607B685A687B681B68F5
:1046A80022F070621A617B681B689A687B681B68D5
:1046B80022F400429A607B68DB68012B07D17B6893
:1046C8009A687B681B6842F400429A6006E07B683F
:1046D8009A687B681B6842F404429A607B68DB68CE
:1046E800022B08D17B681B685A687B681B6842F4F8
:1046F80000625A6007E07B681B685A687B681B6821
:1047080022F400625A607B681B685B687A681268EA
:1047180043F0007343F4004353607B681B68DA6816
:104728007B681B6822F40042DA607B681A697B6840
:104738005B6942EA03017B689B691A027B681B6814
:104748000A43DA607B68D9697B681A6A7B681B68E8
:104758000A431A607B681B681A687B681B6842F00A
:1047680001021A607B6800225A647B68202283F861
:1047780041207B6800221A637B68002283F842206C
:10478800002318460837BD4680BD000080B588B0B4
:1047980002AFF8607A601A460B467B8113463B816C
:1047A800FB6893F84130DBB2202B40F0DA80FB68DD
:1047B80093F84030012B01D10223D3E0FB6801229A
:1047C80083F84020FFF7B6FB78617B6900931923D3
:1047D80001224FF40041F86800F0E6F90346002B87
:1047E80001D00123BEE0FB68212283F84120FB6849
:1047F800102283F84220FB6800225A64FB687A681A
:104808005A62FB683A895A85FB6800225A63FB683A
:104818005B8D9BB2FF2B0ED9FB68FF221A85FB68C4
:104828001B8DDAB27989514B00934FF08073F86889
:1048380000F00AFC6CE0FB685B8D9AB2FB681A8595
:10484800FB681B8DDAB27989484B00934FF00073EF
:10485800F86800F0F9FB5BE07A69396AF86800F0FB
:10486800FCF90346002B01D001237BE0FB685B6A5F
:104878001A78FB681B689A62FB685B6A5A1CFB68BB
:104888005A62FB685B8D9BB2013B9AB2FB685A8502
:10489800FB681B8D013B9AB2FB681A85FB685B8D30
:1048A8009BB2002B34D0FB681B8D002B30D17B6969
:1048B80000933B6A00228021F86800F075F90346EE
:1048C800002B01D001234DE0FB685B8D9BB2FF2BD1
:1048D8000ED9FB68FF221A85FB681B8DDAB279892D
:1048E800002300934FF08073F86800F0ADFB0FE0F1
:1048F800FB685B8D9AB2FB681A85FB681B8DDAB280
:104908007989002300934FF00073F86800F09CFB4E
:10491800FB685B8D9BB2002B9ED17A69396AF86877
:1049280000F0E2F90346002B01D001231AE0FB68EE
:104938001B682022DA61FB681B685968FB681A68E3
:104948000B4B0B405360FB68202283F84120FB6827
:10495800002283F84220FB68002283F840200023CD
:1049680000E0022318461837BD4680BD00200080AD
:1049780000E800FE80B588B002AFF8607A601A4699
:104988000B467B8113463B81FB6893F84130DBB2D1
:10499800202B40F0DB80FB6893F84030012B01D1DD
:1049A8000223D4E0FB68012283F84020FFF7C2FA13
:1049B80078617B690093192301224FF40041F8685C
:1049C80000F0F2F80346002B01D00123BFE0FB689A
:1049D800222283F84120FB68102283F84220FB68DA
:1049E80000225A64FB687A685A62FB683A895A85D9
:1049F800FB6800225A63FB685B8D9BB2FF2B0ED9C4
:104A0800FB68FF221A85FB681B8DDAB27989524B45
:104A180000934FF08073F86800F016FB6DE0FB68B8
:104A28005B8D9AB2FB681A85FB681B8DDAB27989AF
:104A3800494B00934FF00073F86800F005FB5CE009
:104A48007A69396AF86800F093F90346002B01D0B7
:104A580001237CE0FB681B685A6AFB685B6AD2B278
:104A68001A70FB685B6A5A1CFB685A62FB681B8DEC
:104A7800013B9AB2FB681A85FB685B8D9BB2013BD0
:104A88009AB2FB685A85FB685B8D9BB2002B34D0C9
:104A9800FB681B8D002B30D17B6900933B6A002299
:104AA8008021F86800F080F80346002B01D001232C
:104AB8004DE0FB685B8D9BB2FF2B0ED9FB68FF2294
:104AC8001A85FB681B8DDAB27989002300934FF0B1
:104AD8008073F86800F0B8FA0FE0FB685B8D9AB253
:104AE800FB681A85FB681B8DDAB27989002300936D
:104AF8004FF00073F86800F0A7FAFB685B8D9BB273
:104B0800002B9DD17A69396AF86800F0EDF8034600
:104B1800002B01D001231AE0FB681B682022DA6110
:104B2800FB681B685968FB681A680C4B0B4053609C
:104B3800FB68202283F84120FB68002283F842208A
:104B4800FB68002283F84020002300E00223184677
:104B58001837BD4680BD00BF0024008000E800FE75
:104B680080B483B000AF78607B681B689B6903F0F2
:104B78000203022B03D17B681B6800229A627B68C0
:104B88001B689B6903F00103012B07D07B681B6836
:104B98009A697B681B6842F001029A6100BF0C3772
:104BA800BD465DF8047B704780B584B000AFF860FF
:104BB800B9603B601346FB713BE0BA693968F86835
:104BC80000F062F90346002B01D0012341E03B6865
:104BD800B3F1FF3F2DD0FFF7ADF90246BB69D31AF9
:104BE8003A689A4202D33B68002B22D1FB681B68C3
:104BF8009A69BB681340BA689A420CBF0123002324
:104C0800DBB21A46FB799A4213D1FB685B6C43F01E
:104C18002002FB685A64FB68202283F84120FB6865
:104C2800002283F84220FB68002283F840200123F9
:104C38000FE0FB681B689A69BB681340BA689A4220
:104C48000CBF01230023DBB21A46FB799A42B4D089
:104C5800002318461037BD4680BD80B584B000AF2C
:104C6800F860B9607A6033E07A68B968F86800F08B
:104C78000BF90346002B01D0012331E0BB68B3F1E7
:104C8800FF3F25D0FFF756F902467B68D31ABA686A
:104C98009A4202D3BB68002B1AD1FB681B689B6938
:104CA80003F00203022B13D0FB685B6C43F0200275
:104CB800FB685A64FB68202283F84120FB680022C5
:104CC80083F84220FB68002283F84020012307E094
:104CD800FB681B689B6903F00203022BC4D1002305
:104CE80018461037BD4680BD80B584B000AFF86067
:104CF800B9607A602FE07A68B968F86800F0C4F89B
:104D08000346002B01D001232DE0FFF713F90246DB
:104D18007B68D31ABA689A4202D3BB68002B1AD1AF
:104D2800FB681B689B6903F02003202B13D0FB68EA
:104D38005B6C43F02002FB685A64FB68202283F80E
:104D48004120FB68002283F84220FB68002283F898
:104D58004020012307E0FB681B689B6903F02003E0
:104D6800202BC8D1002318461037BD4680BD00004F
:104D780080B586B000AFF860B9607A600023FB7533
:104D880071E07A68B968F86800F07EF80346002B8D
:104D980001D00123FB75FB681B689B6903F02003A6
:104DA800202B3BD1FB7D002B38D1FB681B689B690E
:104DB80003F00403042B05D1FB681B8D002B01D0E5
:104DC8000023FB75FB681B689B6903F01003102B1D
:104DD80021D1FB681B681022DA61FB6804225A643F
:104DE800FB681B682022DA61FB681B685968FB684E
:104DF8001A68244B0B405360FB68202283F841203B
:104E0800FB68002283F84220FB68002283F84020D8
:104E18000123FB7502E0FB6800225A64FFF78AF859
:104E280002467B68D31ABA689A4202D3BB68002B41
:104E380019D1FB7D002B16D1FB681B689B6903F019
:104E48000403042B0FD0FB685B6C43F02002FB6863
:104E58005A64FB68202283F84120FB68002283F80B
:104E680040200123FB75FB681B689B6903F0040362
:104E7800042B02D0FB7D002B83D0FB7D184618370E
:104E8800BD4680BD00E800FE80B58AB000AFF8607E
:104E9800B9607A60002387F82730FB681B689B6934
:104EA800BB6100233B627B68FB61BB6903F01003B5
:104EB800002B68D0FB681B681022DA6149E0BB68E8
:104EC800B3F1FF3F45D0FFF735F80246FB69D31A27
:104ED800BA689A4202D3BB68002B3AD1FB681B68B8
:104EE8005B6803F480437B61FB6893F84230FB7492
:104EF800FB681B689B6903F40043B3F5004F21D19D
:104F08007B69B3F5804F1DD0FB7C202B1AD0FB6842
:104F18001B685A68FB681B6842F480425A60FFF7B6
:104F280009F8F8610EE0FFF705F80246FB69D31AA5
:104F3800192B07D93B6A43F020033B62012387F80A
:104F4800273006E0FB681B689B6903F02003202BD1
:104F5800E9D1FB681B689B6903F02003202B03D071
:104F680097F82730002BAAD097F82730002B03D1C9
:104F7800FB681B682022DA613B6A43F004033B624A
:104F8800012387F82730FB681B689B69BB61BB69F5
:104F980003F48073002B0BD03B6A43F001033B62A0
:104FA800FB681B684FF48072DA61012387F82730A9
:104FB800BB6903F48063002B0BD03B6A43F0080302
:104FC8003B62FB681B684FF48062DA61012387F853
:104FD8002730BB6903F40073002B0BD03B6A43F006
:104FE80002033B62FB681B684FF40072DA6101231D
:104FF80087F8273097F82730002B1CD0F868FFF780
:10500800AFFDFB681B685968FB681A680D4B0B40BD
:105018005360FB685A6C3B6A1A43FB685A64FB6826
:10502800202283F84120FB68002283F84220FB6895
:10503800002283F8402097F8273018462837BD46C5
:1050480080BD00BF00E800FE80B487B000AFF86004
:105058007B600B467B8113467B727B89C3F3090215
:105068007B7A1B0403F47F031A437B681A433B6A69
:10507800134323F000437B61FB681B685A683B6A53
:105088005B0D03F48061084B0B43DB4302EA030129
:10509800FB681B687A690A435A6000BF1C37BD4623
:1050A8005DF8047B704700BFFF63FF0380B483B0E3
:1050B80000AF786039607B6893F84130DBB2202B11
:1050C80038D17B6893F84030012B01D1022332E0BC
:1050D8007B68012283F840207B68242283F84120E2
:1050E8007B681B681A687B681B6822F001021A60DB
:1050F8007B681B681A687B681B6822F480521A60F8
:105108007B681B6819687B681B683A680A431A60E1
:105118007B681B681A687B681B6842F001021A608A
:105128007B68202283F841207B68002283F8402096
:10513800002300E0022318460C37BD465DF8047BC7
:10514800704780B485B000AF786039607B6893F8A9
:105158004130DBB2202B39D17B6893F84030012BEA
:1051680001D1022333E07B68012283F840207B6869
:10517800242283F841207B681B681A687B681B68B7
:1051880022F001021A607B681B681B68FB60FB68E1
:1051980023F47063FB603B681B02FA681343FB60EF
:1051A8007B681B68FA681A607B681B681A687B68EA
:1051B8001B6842F001021A607B68202283F84120B4
:1051C8007B68002283F84020002300E00223184671
:1051D8001437BD465DF8047B7047000080B485B085
:1051E80000AF7860394BDB6B03F44033BB60BA68BF
:1051F8007B689A420BD17B68B3F5803F05D9334B66
:10520800DB68324A43F48023D360002357E07B688D
:10521800B3F5803F0AD92D4BDB6823F4E0227B6885
:1052280013432A4A43F48023D36007E0274BDB6803
:1052380023F4E02225497B681343CB60244B1B6889
:10524800244AA2FB03239B09322202FB03F3214ACF
:10525800A2FB03239B090133FB6002E0FB68013BCF
:10526800FB601A4BDB6803F40043002B02D1FB6898
:10527800002BF3D1FB68002B1BD0154B1B68154A7C
:10528800A2FB03239B09322202FB03F3114AA2FB70
:1052980003239B090133FB6002E0FB68013BFB60D1
:1052A8000A4BDB6B03F40043002B02D1FB68002B95
:1052B800F3D1FB68002B01D1032300E0002318463B
:1052C8001437BD465DF8047B704700BF00080246EE
:1052D80008000020D34D621080B400AF044BDB6B94
:1052E80003F440331846BD465DF8047B704700BFA1
:1052F8000008024680B58EB000AF7860002387F8BA
:1053080037307B68002B02D1012300F0C8BE994BCF
:10531800DB6903F00C033B63964B9B6A03F00303C2
:10532800FB627B681B6803F01003002B00F06C81A4
:105338003B6B002B07D03B6B0C2B40F0DE80FB6AED
:10534800012B40F0DA807B68DB69002B02D1012356
:1053580000F0A5BE7B685A6A864B9B6803F400037D
:10536800002B04D0834B9B6803F0704305E0814B0E
:10537800D3F8F4301B0403F07043934255D23B6BCF
:10538800002B0AD17B685B6A184601F0D9F90346FD
:10539800002B02D0012300F082BE764B9B68754A31
:1053A80043F400039360734B9B6823F070427B685F
:1053B8005B6A704913438B607B685B6AB3F1404F4B
:1053C80009D36C4BDB6823F01F027B681B6A6949B1
:1053D8001343CB607EE07B685B6A002B0ADA654B7F
:1053E800DB6823F478727B681B6A5B0161491343AD
:1053F800CB606FE07B685B6AB3F1804F0AD35D4B8B
:10540800DB6823F4F8427B681B6A9B025949134303
:10541800CB605FE0574BDB6823F478227B681B6A1C
:10542800DB0354491343CB6054E0524B9B68514A09
:1054380043F4000393604F4B9B6823F070427B68F2
:105448005B6A4C4913438B607B685B6AB3F1404FDE
:1054580009D3484BDB6823F01F027B681B6A454968
:105468001343CB6028E07B685B6A002B0ADA414B68
:10547800DB6823F478727B681B6A5B013D49134340
:10548800CB6019E07B685B6AB3F1804F0AD3394B74
:10549800DB6823F4F8427B681B6A9B023549134397
:1054A800CB6009E0334BDB6823F478227B681B6A06
:1054B800DB0330491343CB603B6B002B0AD17B687D
:1054C8005B6A184601F03CF90346002B02D0012321
:1054D80000F0E5BD01F0DEF8274B1B681846FEF723
:1054E8009FFC034687F8273097F82730002B00F0F9
:1054F8008A8097F8273000F0D2BD7B68DB69002BE3
:1055080066D01C4B1B681B4A43F001031360FEF76F
:1055180011FDB86209E0FEF70DFD0246BB6AD31A19
:10552800022B02D9032300F0BABD124B1B6803F00B
:105538000403002BEFD00F4B9B680E4A43F4000383
:1055480093600C4B9B6823F070427B685B6A094947
:1055580013438B607B685B6AB3F1404F0ED3054BF6
:10556800DB6823F01F027B681B6A02491343CB6088
:105578004AE000BF000C02460C0000207B685B6A12
:10558800002B0ADA984BDB6823F478727B681B6A75
:105598005B0195491343CB6036E07B685B6AB3F1E6
:1055A800804F0AD3904BDB6823F4F8427B681B6A70
:1055B8009B028D491343CB6026E08B4BDB6823F4B9
:1055C80078227B681B6ADB0387491343CB601BE0A7
:1055D800854B1B68844A23F001031360FEF7AAFC7D
:1055E800B86209E0FEF7A6FC0246BB6AD31A022B92
:1055F80002D9032300F053BD7B4B1B6803F004035F
:10560800002BEFD100E000BF7B681B6803F00103AB
:10561800002B00F08B803B6B082B05D03B6B0C2BD1
:1056280009D1FB6A032B06D17B685B68002B7DD10F
:10563800012300F034BD7B685B68B3F5803F06D179
:10564800694B1B68684A43F48033136041E07B6808
:105658005B68B3F5A02F12D1634B1B68624A43F411
:1056680080231360604B1B685F4A23F48013136028
:105678005D4B1B685C4A43F48033136029E07B6808
:105688005B68B3F5A81F12D1574B1B68564A43F401
:1056980080231360544B1B68534A43F480131360F0
:1056A800514B1B68504A43F48033136011E04E4B52
:1056B8001B684D4A23F4803313604B4B1B684A4ADE
:1056C80023F480231360484B1B68474A23F4801354
:1056D80013607B685B68002B14D0FEF72BFCB86264
:1056E80009E0FEF727FC0246BB6AD31A642B02D9ED
:1056F800032300F0D4BC3C4B1B6803F40033002B9D
:10570800EFD013E0FEF716FCB86209E0FEF712FCD2
:105718000246BB6AD31A642B02D9032300F0BFBC2C
:10572800314B1B6803F40033002BEFD17B681B68F7
:1057380003F00203002B5FD03B6B042B05D03B6BBF
:105748000C2B14D1FB6A022B11D17B68DB68002B70
:1057580002D1012300F0A3BC234B1B6923F4F812E8
:105768007B681B691B04204913430B6144E07B6879
:10577800DB68002B24D01C4B1B681B4A43F4807346
:105788001360FEF7D7FBB86209E0FEF7D3FB0246C9
:10579800BB6AD31A022B02D9032300F080BC124B38
:1057A8001B6803F48063002BEFD00F4B1B6923F4B5
:1057B800F8127B681B691B040B4913430B611BE040
:1057C800094B1B68084A23F480731360FEF7B2FB89
:1057D800B8620BE0FEF7AEFB0246BB6AD31A022B97
:1057E80004D9032300F05BBC000C0246AF4B1B68D6
:1057F80003F48063002BEDD17B681B6803F008037A
:10580800002B00F0C880002387F83630A74BD3F868
:10581800943003F00403002B11D1A44BD3F8943037
:10582800A24A43F00403C2F89430A04BD3F8943052
:1058380003F004037B617B69012387F836309C4BB6
:105848009B6A03F00103002B19D1994B9B6A984A74
:1058580043F001039362FEF76DFBB86209E0FEF7BF
:1058680069FB0246BB6AD31A022B02D9032300F054
:1058780016BC8F4B9B6A03F00103002BEFD07B68AB
:105888005B69002B5FD0894BD3F8F0303B627B68B3
:105898009A693B6A03F080539A4237D03B6A03F017
:1058A8000063002B06D03B6A03F08063002B01D114
:1058B8000123F4E33B6A03F08063002B1BD07B4B8E
:1058C800D3F8F030794A23F0A053C2F8F030FEF74D
:1058D80031FBB86208E0FEF72DFB0246BB6AD31A1B
:1058E800052B01D90323DAE3704BD3F8F03003F02A
:1058F8000063002BEFD16D4BD3F8F03023F08052CA
:105908007B689B6969491343C1F8F030674BD3F84A
:10591800F030664A43F08063C2F8F030FEF70AFBC5
:10592800B86208E0FEF706FB0246BB6AD31A052BED
:1059380001D90323B3E35D4BD3F8F03003F00063E0
:10594800002BEFD01BE0594BD3F8F030574A23F027
:10595800A053C2F8F030FEF7EDFAB86208E0FEF79F
:10596800E9FA0246BB6AD31A052B01D9032396E349
:105978004E4BD3F8F03003F00063002BEFD197F8CB
:105988003630012B07D1494BD3F89430474A23F0DE
:105998000403C2F894307B681B6803F00403002BEF
:1059A80000F01181002387F83530404BD3F894304C
:1059B80003F00403002B11D13C4BD3F894303B4A3D
:1059C80043F00403C2F89430384BD3F8943003F012
:1059D80004033B613B69012387F83530344B9B6AEC
:1059E80003F00103002B18D1314B9B6A304A43F076
:1059F80001039362FEF79EFAB86208E0FEF79AFA8E
:105A08000246BB6AD31A022B01D9032347E3284B6A
:105A18009B6A03F00103002BF0D07B689B6803F0BE
:105A28000103002B1FD07B689B6803F00403002B45
:105A380010D01E4BD3F8F0301C4A43F00403C2F8D0
:105A4800F0301A4BD3F8F030184A43F00103C2F88B
:105A5800F03018E0154BD3F8F030144A43F0010346
:105A6800C2F8F0300FE0114BD3F8F0300F4A23F0B2
:105A78000103C2F8F0300D4BD3F8F0300B4A23F095
:105A88000403C2F8F0307B689B68002B57D0FEF700
:105A980051FAB8620EE0FEF74DFA0246BB6AD31A15
:105AA80041F28832934205D90323F8E2000C0246FA
:105AB800000802469C4BD3F8F03003F00203002B99
:105AC800E9D07B689B6803F08003002B1BD0964BC2
